{
  "_format": "hh-sol-artifact-1",
  "contractName": "WagerGames",
  "sourceName": "contracts/WagerGames.sol",
  "abi": [
    {
      "inputs": [
        {
          "internalType": "address",
          "name": "_wagerToken",
          "type": "address"
        }
      ],
      "stateMutability": "nonpayable",
      "type": "constructor"
    },
    {
      "inputs": [
        {
          "internalType": "address",
          "name": "owner",
          "type": "address"
        }
      ],
      "name": "OwnableInvalidOwner",
      "type": "error"
    },
    {
      "inputs": [
        {
          "internalType": "address",
          "name": "account",
          "type": "address"
        }
      ],
      "name": "OwnableUnauthorizedAccount",
      "type": "error"
    },
    {
      "anonymous": false,
      "inputs": [
        {
          "indexed": true,
          "internalType": "address",
          "name": "player",
          "type": "address"
        },
        {
          "indexed": false,
          "internalType": "string",
          "name": "game",
          "type": "string"
        },
        {
          "indexed": false,
          "internalType": "uint256",
          "name": "betAmount",
          "type": "uint256"
        },
        {
          "indexed": false,
          "internalType": "uint256",
          "name": "payout",
          "type": "uint256"
        },
        {
          "indexed": false,
          "internalType": "bool",
          "name": "won",
          "type": "bool"
        }
      ],
      "name": "GamePlayed",
      "type": "event"
    },
    {
      "anonymous": false,
      "inputs": [
        {
          "indexed": true,
          "internalType": "address",
          "name": "previousOwner",
          "type": "address"
        },
        {
          "indexed": true,
          "internalType": "address",
          "name": "newOwner",
          "type": "address"
        }
      ],
      "name": "OwnershipTransferred",
      "type": "event"
    },
    {
      "inputs": [],
      "name": "owner",
      "outputs": [
        {
          "internalType": "address",
          "name": "",
          "type": "address"
        }
      ],
      "stateMutability": "view",
      "type": "function"
    },
    {
      "inputs": [
        {
          "internalType": "uint256",
          "name": "betAmount",
          "type": "uint256"
        }
      ],
      "name": "playBlindLoot",
      "outputs": [],
      "stateMutability": "nonpayable",
      "type": "function"
    },
    {
      "inputs": [
        {
          "internalType": "uint256",
          "name": "betAmount",
          "type": "uint256"
        }
      ],
      "name": "playGravityDrop",
      "outputs": [],
      "stateMutability": "nonpayable",
      "type": "function"
    },
    {
      "inputs": [
        {
          "internalType": "uint256",
          "name": "betAmount",
          "type": "uint256"
        }
      ],
      "name": "playMysteryField",
      "outputs": [],
      "stateMutability": "nonpayable",
      "type": "function"
    },
    {
      "inputs": [
        {
          "internalType": "uint256",
          "name": "betAmount",
          "type": "uint256"
        }
      ],
      "name": "playPenalty",
      "outputs": [],
      "stateMutability": "nonpayable",
      "type": "function"
    },
    {
      "inputs": [
        {
          "internalType": "uint256",
          "name": "betAmount",
          "type": "uint256"
        }
      ],
      "name": "playRPSZeroTrust",
      "outputs": [],
      "stateMutability": "nonpayable",
      "type": "function"
    },
    {
      "inputs": [
        {
          "internalType": "uint256",
          "name": "betAmount",
          "type": "uint256"
        }
      ],
      "name": "playTrendRider",
      "outputs": [],
      "stateMutability": "nonpayable",
      "type": "function"
    },
    {
      "inputs": [],
      "name": "renounceOwnership",
      "outputs": [],
      "stateMutability": "nonpayable",
      "type": "function"
    },
    {
      "inputs": [
        {
          "internalType": "address",
          "name": "newOwner",
          "type": "address"
        }
      ],
      "name": "transferOwnership",
      "outputs": [],
      "stateMutability": "nonpayable",
      "type": "function"
    },
    {
      "inputs": [],
      "name": "wagerToken",
      "outputs": [
        {
          "internalType": "contract IERC20",
          "name": "",
          "type": "address"
        }
      ],
      "stateMutability": "view",
      "type": "function"
    },
    {
      "inputs": [
        {
          "internalType": "uint256",
          "name": "amount",
          "type": "uint256"
        }
      ],
      "name": "withdrawLiquidity",
      "outputs": [],
      "stateMutability": "nonpayable",
      "type": "function"
    }
  ],
  "bytecode": "0x60806040523480156200001157600080fd5b506040516200131538038062001315833981810160405281019062000037919062000235565b33600073ffffffffffffffffffffffffffffffffffffffff168173ffffffffffffffffffffffffffffffffffffffff1603620000ad5760006040517f1e4fbdf7000000000000000000000000000000000000000000000000000000008152600401620000a4919062000278565b60405180910390fd5b620000be816200010760201b60201c565b5080600160006101000a81548173ffffffffffffffffffffffffffffffffffffffff021916908373ffffffffffffffffffffffffffffffffffffffff1602179055505062000295565b60008060009054906101000a900473ffffffffffffffffffffffffffffffffffffffff169050816000806101000a81548173ffffffffffffffffffffffffffffffffffffffff021916908373ffffffffffffffffffffffffffffffffffffffff1602179055508173ffffffffffffffffffffffffffffffffffffffff168173ffffffffffffffffffffffffffffffffffffffff167f8be0079c531659141344cd1fd0a4f28419497f9722a3daafe3b4186f6b6457e060405160405180910390a35050565b600080fd5b600073ffffffffffffffffffffffffffffffffffffffff82169050919050565b6000620001fd82620001d0565b9050919050565b6200020f81620001f0565b81146200021b57600080fd5b50565b6000815190506200022f8162000204565b92915050565b6000602082840312156200024e576200024d620001cb565b5b60006200025e848285016200021e565b91505092915050565b6200027281620001f0565b82525050565b60006020820190506200028f600083018462000267565b92915050565b61107080620002a56000396000f3fe608060405234801561001057600080fd5b50600436106100a95760003560e01c80637455f25e116100715780637455f25e146101285780638da5cb5b14610144578063adad368514610162578063c9272e2a14610180578063e6b6a9a51461019c578063f2fde38b146101b8576100a9565b80630a861f2a146100ae5780631420ac11146100ca57806359d21ce1146100e6578063641c82ed14610102578063715018a61461011e575b600080fd5b6100c860048036038101906100c39190610a97565b6101d4565b005b6100e460048036038101906100df9190610a97565b610287565b005b61010060048036038101906100fb9190610a97565b6102ce565b005b61011c60048036038101906101179190610a97565b610314565b005b61012661035a565b005b610142600480360381019061013d9190610a97565b61036e565b005b61014c6103b4565b6040516101599190610b05565b60405180910390f35b61016a6103dd565b6040516101779190610b7f565b60405180910390f35b61019a60048036038101906101959190610a97565b610403565b005b6101b660048036038101906101b19190610a97565b610449565b005b6101d260048036038101906101cd9190610bc6565b610490565b005b6101dc610516565b600160009054906101000a900473ffffffffffffffffffffffffffffffffffffffff1673ffffffffffffffffffffffffffffffffffffffff1663a9059cbb6102226103b4565b836040518363ffffffff1660e01b8152600401610240929190610c02565b6020604051808303816000875af115801561025f573d6000803e3d6000fd5b505050506040513d601f19601f820116820180604052508101906102839190610c63565b5050565b6102cb816040518060400160405280600981526020017f426c696e644c6f6f7400000000000000000000000000000000000000000000008152506101f4601461059d565b50565b610311816040518060400160405280600a81526020017f5472656e6452696465720000000000000000000000000000000000000000000081525060fa602861059d565b50565b610357816040518060400160405280600b81526020017f4772617669747944726f700000000000000000000000000000000000000000008152506096604261059d565b50565b610362610516565b61036c6000610990565b565b6103b1816040518060400160405280600c81526020017f5250535a65726f5472757374000000000000000000000000000000000000000081525060c3603261059d565b50565b60008060009054906101000a900473ffffffffffffffffffffffffffffffffffffffff16905090565b600160009054906101000a900473ffffffffffffffffffffffffffffffffffffffff1681565b610446816040518060400160405280600781526020017f50656e616c74790000000000000000000000000000000000000000000000000081525060c8603261059d565b50565b61048d816040518060400160405280600c81526020017f4d7973746572794669656c64000000000000000000000000000000000000000081525061012c602161059d565b50565b610498610516565b600073ffffffffffffffffffffffffffffffffffffffff168173ffffffffffffffffffffffffffffffffffffffff160361050a5760006040517f1e4fbdf70000000000000000000000000000000000000000000000000000000081526004016105019190610b05565b60405180910390fd5b61051381610990565b50565b61051e610a54565b73ffffffffffffffffffffffffffffffffffffffff1661053c6103b4565b73ffffffffffffffffffffffffffffffffffffffff161461059b5761055f610a54565b6040517f118cdaa70000000000000000000000000000000000000000000000000000000081526004016105929190610b05565b60405180910390fd5b565b83600160009054906101000a900473ffffffffffffffffffffffffffffffffffffffff1673ffffffffffffffffffffffffffffffffffffffff166370a08231336040518263ffffffff1660e01b81526004016105f99190610b05565b602060405180830381865afa158015610616573d6000803e3d6000fd5b505050506040513d601f19601f8201168201806040525081019061063a9190610ca5565b101561067b576040517f08c379a000000000000000000000000000000000000000000000000000000000815260040161067290610d2f565b60405180910390fd5b606482856106899190610d7e565b6106939190610def565b600160009054906101000a900473ffffffffffffffffffffffffffffffffffffffff1673ffffffffffffffffffffffffffffffffffffffff166370a08231306040518263ffffffff1660e01b81526004016106ee9190610b05565b602060405180830381865afa15801561070b573d6000803e3d6000fd5b505050506040513d601f19601f8201168201806040525081019061072f9190610ca5565b1015610770576040517f08c379a000000000000000000000000000000000000000000000000000000000815260040161076790610e6c565b60405180910390fd5b6000600160009054906101000a900473ffffffffffffffffffffffffffffffffffffffff1673ffffffffffffffffffffffffffffffffffffffff166323b872dd3330886040518463ffffffff1660e01b81526004016107d193929190610e8c565b6020604051808303816000875af11580156107f0573d6000803e3d6000fd5b505050506040513d601f19601f820116820180604052508101906108149190610c63565b905080610856576040517f08c379a000000000000000000000000000000000000000000000000000000000815260040161084d90610f0f565b60405180910390fd5b60006064426108659190610f2f565b9050600083821090506000811561093257606486896108849190610d7e565b61088e9190610def565b9050600160009054906101000a900473ffffffffffffffffffffffffffffffffffffffff1673ffffffffffffffffffffffffffffffffffffffff1663a9059cbb33836040518363ffffffff1660e01b81526004016108ed929190610c02565b6020604051808303816000875af115801561090c573d6000803e3d6000fd5b505050506040513d601f19601f820116820180604052508101906109309190610c63565b505b3373ffffffffffffffffffffffffffffffffffffffff167f7f3fef066394a0b1fc01f08dd1d9a918b93f0ce96addfc1a8cba75930b2d30e5888a848660405161097e9493929190610fee565b60405180910390a25050505050505050565b60008060009054906101000a900473ffffffffffffffffffffffffffffffffffffffff169050816000806101000a81548173ffffffffffffffffffffffffffffffffffffffff021916908373ffffffffffffffffffffffffffffffffffffffff1602179055508173ffffffffffffffffffffffffffffffffffffffff168173ffffffffffffffffffffffffffffffffffffffff167f8be0079c531659141344cd1fd0a4f28419497f9722a3daafe3b4186f6b6457e060405160405180910390a35050565b600033905090565b600080fd5b6000819050919050565b610a7481610a61565b8114610a7f57600080fd5b50565b600081359050610a9181610a6b565b92915050565b600060208284031215610aad57610aac610a5c565b5b6000610abb84828501610a82565b91505092915050565b600073ffffffffffffffffffffffffffffffffffffffff82169050919050565b6000610aef82610ac4565b9050919050565b610aff81610ae4565b82525050565b6000602082019050610b1a6000830184610af6565b92915050565b6000819050919050565b6000610b45610b40610b3b84610ac4565b610b20565b610ac4565b9050919050565b6000610b5782610b2a565b9050919050565b6000610b6982610b4c565b9050919050565b610b7981610b5e565b82525050565b6000602082019050610b946000830184610b70565b92915050565b610ba381610ae4565b8114610bae57600080fd5b50565b600081359050610bc081610b9a565b92915050565b600060208284031215610bdc57610bdb610a5c565b5b6000610bea84828501610bb1565b91505092915050565b610bfc81610a61565b82525050565b6000604082019050610c176000830185610af6565b610c246020830184610bf3565b9392505050565b60008115159050919050565b610c4081610c2b565b8114610c4b57600080fd5b50565b600081519050610c5d81610c37565b92915050565b600060208284031215610c7957610c78610a5c565b5b6000610c8784828501610c4e565b91505092915050565b600081519050610c9f81610a6b565b92915050565b600060208284031215610cbb57610cba610a5c565b5b6000610cc984828501610c90565b91505092915050565b600082825260208201905092915050565b7f496e73756666696369656e742077616765722062616c616e6365000000000000600082015250565b6000610d19601a83610cd2565b9150610d2482610ce3565b602082019050919050565b60006020820190508181036000830152610d4881610d0c565b9050919050565b7f4e487b7100000000000000000000000000000000000000000000000000000000600052601160045260246000fd5b6000610d8982610a61565b9150610d9483610a61565b9250828202610da281610a61565b91508282048414831517610db957610db8610d4f565b5b5092915050565b7f4e487b7100000000000000000000000000000000000000000000000000000000600052601260045260246000fd5b6000610dfa82610a61565b9150610e0583610a61565b925082610e1557610e14610dc0565b5b828204905092915050565b7f496e73756666696369656e74207472656173757279206c697175696469747900600082015250565b6000610e56601f83610cd2565b9150610e6182610e20565b602082019050919050565b60006020820190508181036000830152610e8581610e49565b9050919050565b6000606082019050610ea16000830186610af6565b610eae6020830185610af6565b610ebb6040830184610bf3565b949350505050565b7f426574207472616e73666572206661696c656400000000000000000000000000600082015250565b6000610ef9601383610cd2565b9150610f0482610ec3565b602082019050919050565b60006020820190508181036000830152610f2881610eec565b9050919050565b6000610f3a82610a61565b9150610f4583610a61565b925082610f5557610f54610dc0565b5b828206905092915050565b600081519050919050565b60005b83811015610f89578082015181840152602081019050610f6e565b60008484015250505050565b6000601f19601f8301169050919050565b6000610fb182610f60565b610fbb8185610cd2565b9350610fcb818560208601610f6b565b610fd481610f95565b840191505092915050565b610fe881610c2b565b82525050565b600060808201905081810360008301526110088187610fa6565b90506110176020830186610bf3565b6110246040830185610bf3565b6110316060830184610fdf565b9594505050505056fea264697066735822122071bb45d580e888590cb13ff126840116cdd98c19a5edf8e1edbc0164d4cf1aa864736f6c63430008140033",
  "linkReferences": {},
  "deployedLinkReferences": {}
}