{
  "_format": "hh-sol-artifact-1",
  "contractName": "HybridWagerSwapRouter",
  "sourceName": "contracts/HybridWagerSwapRouter.sol",
  "abi": [
    {
      "inputs": [
        {
          "internalType": "address",
          "name": "_wagerToken",
          "type": "address"
        },
        {
          "internalType": "address",
          "name": "_usdcToken",
          "type": "address"
        },
        {
          "internalType": "address",
          "name": "_usdtToken",
          "type": "address"
        },
        {
          "internalType": "address",
          "name": "_pythContract",
          "type": "address"
        },
        {
          "internalType": "bytes32",
          "name": "_hbarUsdPriceFeedId",
          "type": "bytes32"
        }
      ],
      "stateMutability": "nonpayable",
      "type": "constructor"
    },
    {
      "inputs": [
        {
          "internalType": "address",
          "name": "owner",
          "type": "address"
        }
      ],
      "name": "OwnableInvalidOwner",
      "type": "error"
    },
    {
      "inputs": [
        {
          "internalType": "address",
          "name": "account",
          "type": "address"
        }
      ],
      "name": "OwnableUnauthorizedAccount",
      "type": "error"
    },
    {
      "inputs": [],
      "name": "ReentrancyGuardReentrantCall",
      "type": "error"
    },
    {
      "anonymous": false,
      "inputs": [
        {
          "indexed": true,
          "internalType": "address",
          "name": "previousOwner",
          "type": "address"
        },
        {
          "indexed": true,
          "internalType": "address",
          "name": "newOwner",
          "type": "address"
        }
      ],
      "name": "OwnershipTransferred",
      "type": "event"
    },
    {
      "anonymous": false,
      "inputs": [
        {
          "indexed": true,
          "internalType": "address",
          "name": "user",
          "type": "address"
        },
        {
          "indexed": false,
          "internalType": "string",
          "name": "tokenOut",
          "type": "string"
        },
        {
          "indexed": false,
          "internalType": "uint256",
          "name": "amountIn",
          "type": "uint256"
        },
        {
          "indexed": false,
          "internalType": "uint256",
          "name": "amountOut",
          "type": "uint256"
        },
        {
          "indexed": false,
          "internalType": "bool",
          "name": "isOracle",
          "type": "bool"
        }
      ],
      "name": "SwapHbarForToken",
      "type": "event"
    },
    {
      "anonymous": false,
      "inputs": [
        {
          "indexed": true,
          "internalType": "address",
          "name": "user",
          "type": "address"
        },
        {
          "indexed": false,
          "internalType": "string",
          "name": "tokenIn",
          "type": "string"
        },
        {
          "indexed": false,
          "internalType": "uint256",
          "name": "amountIn",
          "type": "uint256"
        },
        {
          "indexed": false,
          "internalType": "uint256",
          "name": "amountOut",
          "type": "uint256"
        },
        {
          "indexed": false,
          "internalType": "bool",
          "name": "isOracle",
          "type": "bool"
        }
      ],
      "name": "SwapTokenForHbar",
      "type": "event"
    },
    {
      "anonymous": false,
      "inputs": [
        {
          "indexed": true,
          "internalType": "address",
          "name": "user",
          "type": "address"
        },
        {
          "indexed": false,
          "internalType": "string",
          "name": "tokenIn",
          "type": "string"
        },
        {
          "indexed": false,
          "internalType": "string",
          "name": "tokenOut",
          "type": "string"
        },
        {
          "indexed": false,
          "internalType": "uint256",
          "name": "amountIn",
          "type": "uint256"
        },
        {
          "indexed": false,
          "internalType": "uint256",
          "name": "amountOut",
          "type": "uint256"
        }
      ],
      "name": "SwapTokenForToken",
      "type": "event"
    },
    {
      "inputs": [],
      "name": "hbarUsdPriceFeedId",
      "outputs": [
        {
          "internalType": "bytes32",
          "name": "",
          "type": "bytes32"
        }
      ],
      "stateMutability": "view",
      "type": "function"
    },
    {
      "inputs": [],
      "name": "owner",
      "outputs": [
        {
          "internalType": "address",
          "name": "",
          "type": "address"
        }
      ],
      "stateMutability": "view",
      "type": "function"
    },
    {
      "inputs": [],
      "name": "pyth",
      "outputs": [
        {
          "internalType": "contract IPyth",
          "name": "",
          "type": "address"
        }
      ],
      "stateMutability": "view",
      "type": "function"
    },
    {
      "inputs": [],
      "name": "renounceOwnership",
      "outputs": [],
      "stateMutability": "nonpayable",
      "type": "function"
    },
    {
      "inputs": [
        {
          "internalType": "address",
          "name": "_pythContract",
          "type": "address"
        },
        {
          "internalType": "bytes32",
          "name": "_priceFeedId",
          "type": "bytes32"
        }
      ],
      "name": "setPyth",
      "outputs": [],
      "stateMutability": "nonpayable",
      "type": "function"
    },
    {
      "inputs": [
        {
          "internalType": "string",
          "name": "tokenOutSymbol",
          "type": "string"
        },
        {
          "internalType": "uint256",
          "name": "minAmountOut",
          "type": "uint256"
        },
        {
          "internalType": "bytes[]",
          "name": "priceUpdateData",
          "type": "bytes[]"
        }
      ],
      "name": "swapHbarForToken",
      "outputs": [],
      "stateMutability": "payable",
      "type": "function"
    },
    {
      "inputs": [
        {
          "internalType": "string",
          "name": "tokenInSymbol",
          "type": "string"
        },
        {
          "internalType": "uint256",
          "name": "amountIn",
          "type": "uint256"
        },
        {
          "internalType": "uint256",
          "name": "minAmountOut",
          "type": "uint256"
        },
        {
          "internalType": "bytes[]",
          "name": "priceUpdateData",
          "type": "bytes[]"
        }
      ],
      "name": "swapTokenForHbar",
      "outputs": [],
      "stateMutability": "payable",
      "type": "function"
    },
    {
      "inputs": [
        {
          "internalType": "string",
          "name": "tokenInSymbol",
          "type": "string"
        },
        {
          "internalType": "string",
          "name": "tokenOutSymbol",
          "type": "string"
        },
        {
          "internalType": "uint256",
          "name": "amountIn",
          "type": "uint256"
        },
        {
          "internalType": "uint256",
          "name": "minAmountOut",
          "type": "uint256"
        },
        {
          "internalType": "bytes[]",
          "name": "priceUpdateData",
          "type": "bytes[]"
        }
      ],
      "name": "swapTokenForToken",
      "outputs": [],
      "stateMutability": "payable",
      "type": "function"
    },
    {
      "inputs": [
        {
          "internalType": "address",
          "name": "newOwner",
          "type": "address"
        }
      ],
      "name": "transferOwnership",
      "outputs": [],
      "stateMutability": "nonpayable",
      "type": "function"
    },
    {
      "inputs": [],
      "name": "usdcToken",
      "outputs": [
        {
          "internalType": "contract IERC20",
          "name": "",
          "type": "address"
        }
      ],
      "stateMutability": "view",
      "type": "function"
    },
    {
      "inputs": [],
      "name": "usdtToken",
      "outputs": [
        {
          "internalType": "contract IERC20",
          "name": "",
          "type": "address"
        }
      ],
      "stateMutability": "view",
      "type": "function"
    },
    {
      "inputs": [],
      "name": "wagerToken",
      "outputs": [
        {
          "internalType": "contract IERC20",
          "name": "",
          "type": "address"
        }
      ],
      "stateMutability": "view",
      "type": "function"
    },
    {
      "inputs": [
        {
          "internalType": "address",
          "name": "tokenAddress",
          "type": "address"
        },
        {
          "internalType": "uint256",
          "name": "amount",
          "type": "uint256"
        }
      ],
      "name": "withdrawLiquidity",
      "outputs": [],
      "stateMutability": "nonpayable",
      "type": "function"
    },
    {
      "stateMutability": "payable",
      "type": "receive"
    }
  ],
  "bytecode": "0x60806040523480156200001157600080fd5b50604051620040fb380380620040fb83398181016040528101906200003791906200039c565b33600073ffffffffffffffffffffffffffffffffffffffff168173ffffffffffffffffffffffffffffffffffffffff1603620000ad5760006040517f1e4fbdf7000000000000000000000000000000000000000000000000000000008152600401620000a4919062000435565b60405180910390fd5b620000be81620001fe60201b60201c565b506001620000e1620000d5620002c260201b60201c565b620002ed60201b60201c565b6000018190555084600160006101000a81548173ffffffffffffffffffffffffffffffffffffffff021916908373ffffffffffffffffffffffffffffffffffffffff16021790555083600260006101000a81548173ffffffffffffffffffffffffffffffffffffffff021916908373ffffffffffffffffffffffffffffffffffffffff16021790555082600360006101000a81548173ffffffffffffffffffffffffffffffffffffffff021916908373ffffffffffffffffffffffffffffffffffffffff16021790555081600460006101000a81548173ffffffffffffffffffffffffffffffffffffffff021916908373ffffffffffffffffffffffffffffffffffffffff16021790555080600581905550505050505062000452565b60008060009054906101000a900473ffffffffffffffffffffffffffffffffffffffff169050816000806101000a81548173ffffffffffffffffffffffffffffffffffffffff021916908373ffffffffffffffffffffffffffffffffffffffff1602179055508173ffffffffffffffffffffffffffffffffffffffff168173ffffffffffffffffffffffffffffffffffffffff167f8be0079c531659141344cd1fd0a4f28419497f9722a3daafe3b4186f6b6457e060405160405180910390a35050565b60007f9b779b17422d0df92223018b32b4d1fa46e071723d6817e2486d003becc55f0060001b905090565b6000819050919050565b600080fd5b600073ffffffffffffffffffffffffffffffffffffffff82169050919050565b60006200032982620002fc565b9050919050565b6200033b816200031c565b81146200034757600080fd5b50565b6000815190506200035b8162000330565b92915050565b6000819050919050565b620003768162000361565b81146200038257600080fd5b50565b60008151905062000396816200036b565b92915050565b600080600080600060a08688031215620003bb57620003ba620002f7565b5b6000620003cb888289016200034a565b9550506020620003de888289016200034a565b9450506040620003f1888289016200034a565b935050606062000404888289016200034a565b9250506080620004178882890162000385565b9150509295509295909350565b6200042f816200031c565b82525050565b60006020820190506200044c600083018462000424565b92915050565b613c9980620004626000396000f3fe6080604052600436106100c65760003560e01c8063715018a61161007f578063adad368511610059578063adad36851461021f578063d1dac5b51461024a578063f2fde38b14610266578063f98d06f01461028f576100cd565b8063715018a6146101b25780638da5cb5b146101c9578063a98ad46c146101f4576100cd565b80630311f442146100d257806306d47de9146100fd57806307b00abc1461012657806311eac8551461014f578063130056a91461017a5780635f42967b14610196576100cd565b366100cd57005b600080fd5b3480156100de57600080fd5b506100e76102ba565b6040516100f49190612478565b60405180910390f35b34801561010957600080fd5b50610124600480360381019061011f919061253b565b6102c0565b005b34801561013257600080fd5b5061014d600480360381019061014891906125a7565b610440565b005b34801561015b57600080fd5b50610164610494565b6040516101719190612646565b60405180910390f35b610194600480360381019061018f919061271c565b6104ba565b005b6101b060048036038101906101ab91906127f8565b610a2d565b005b3480156101be57600080fd5b506101c7610c3d565b005b3480156101d557600080fd5b506101de610c51565b6040516101eb919061289c565b60405180910390f35b34801561020057600080fd5b50610209610c7a565b6040516102169190612646565b60405180910390f35b34801561022b57600080fd5b50610234610ca0565b6040516102419190612646565b60405180910390f35b610264600480360381019061025f91906128b7565b610cc6565b005b34801561027257600080fd5b5061028d6004803603810190610288919061295e565b610f1b565b005b34801561029b57600080fd5b506102a4610fa1565b6040516102b191906129ac565b60405180910390f35b60055481565b6102c8610fc7565b600073ffffffffffffffffffffffffffffffffffffffff168273ffffffffffffffffffffffffffffffffffffffff16036103b5576000610306610c51565b73ffffffffffffffffffffffffffffffffffffffff1682604051610329906129f8565b60006040518083038185875af1925050503d8060008114610366576040519150601f19603f3d011682016040523d82523d6000602084013e61036b565b606091505b50509050806103af576040517f08c379a00000000000000000000000000000000000000000000000000000000081526004016103a690612a6a565b60405180910390fd5b5061043c565b8173ffffffffffffffffffffffffffffffffffffffff1663a9059cbb6103d9610c51565b836040518363ffffffff1660e01b81526004016103f7929190612a99565b6020604051808303816000875af1158015610416573d6000803e3d6000fd5b505050506040513d601f19601f8201168201806040525081019061043a9190612afa565b505b5050565b610448610fc7565b81600460006101000a81548173ffffffffffffffffffffffffffffffffffffffff021916908373ffffffffffffffffffffffffffffffffffffffff160217905550806005819055505050565b600260009054906101000a900473ffffffffffffffffffffffffffffffffffffffff1681565b6104c261104e565b600061051189898080601f016020809104026020016040519081016040528093929190818152602001838380828437600081840152601f19601f82011690508083019250505050505050611071565b9050600061056288888080601f016020809104026020016040519081016040528093929190818152602001838380828437600081840152601f19601f82011690508083019250505050505050611071565b9050600260009054906101000a900473ffffffffffffffffffffffffffffffffffffffff1673ffffffffffffffffffffffffffffffffffffffff168273ffffffffffffffffffffffffffffffffffffffff16148061060d5750600360009054906101000a900473ffffffffffffffffffffffffffffffffffffffff1673ffffffffffffffffffffffffffffffffffffffff168273ffffffffffffffffffffffffffffffffffffffff16145b80156106be5750600260009054906101000a900473ffffffffffffffffffffffffffffffffffffffff1673ffffffffffffffffffffffffffffffffffffffff168173ffffffffffffffffffffffffffffffffffffffff1614806106bd5750600360009054906101000a900473ffffffffffffffffffffffffffffffffffffffff1673ffffffffffffffffffffffffffffffffffffffff168173ffffffffffffffffffffffffffffffffffffffff16145b5b156109de5760003414610706576040517f08c379a00000000000000000000000000000000000000000000000000000000081526004016106fd90612b73565b60405180910390fd5b858173ffffffffffffffffffffffffffffffffffffffff166370a08231306040518263ffffffff1660e01b8152600401610740919061289c565b602060405180830381865afa15801561075d573d6000803e3d6000fd5b505050506040513d601f19601f820116820180604052508101906107819190612ba8565b10156107c2576040517f08c379a00000000000000000000000000000000000000000000000000000000081526004016107b990612c21565b60405180910390fd5b84861015610805576040517f08c379a00000000000000000000000000000000000000000000000000000000081526004016107fc90612c8d565b60405180910390fd5b8173ffffffffffffffffffffffffffffffffffffffff166323b872dd3330896040518463ffffffff1660e01b815260040161084293929190612cad565b6020604051808303816000875af1158015610861573d6000803e3d6000fd5b505050506040513d601f19601f820116820180604052508101906108859190612afa565b6108c4576040517f08c379a00000000000000000000000000000000000000000000000000000000081526004016108bb90612d30565b60405180910390fd5b8073ffffffffffffffffffffffffffffffffffffffff1663a9059cbb33886040518363ffffffff1660e01b81526004016108ff929190612a99565b6020604051808303816000875af115801561091e573d6000803e3d6000fd5b505050506040513d601f19601f820116820180604052508101906109429190612afa565b610981576040517f08c379a000000000000000000000000000000000000000000000000000000000815260040161097890612d30565b60405180910390fd5b3373ffffffffffffffffffffffffffffffffffffffff167ff1d8f6f2110f1b36d4d6a72c57541a6d5bbcf53632050a7a8c8ead3750c765c18b8b8b8b8b8c6040516109d196959493929190612d9d565b60405180910390a2610a19565b6040517f08c379a0000000000000000000000000000000000000000000000000000000008152600401610a1090612e66565b60405180910390fd5b5050610a2361125d565b5050505050505050565b610a3561104e565b6000610a8486868080601f016020809104026020016040519081016040528093929190818152602001838380828437600081840152601f19601f82011690508083019250505050505050611071565b9050600260009054906101000a900473ffffffffffffffffffffffffffffffffffffffff1673ffffffffffffffffffffffffffffffffffffffff168173ffffffffffffffffffffffffffffffffffffffff161480610b2f5750600360009054906101000a900473ffffffffffffffffffffffffffffffffffffffff1673ffffffffffffffffffffffffffffffffffffffff168173ffffffffffffffffffffffffffffffffffffffff16145b15610b8c57610b868187878080601f016020809104026020016040519081016040528093929190818152602001838380828437600081840152601f19601f8201169050808301925050505050505034878787611278565b50610c2d565b600160009054906101000a900473ffffffffffffffffffffffffffffffffffffffff1673ffffffffffffffffffffffffffffffffffffffff168173ffffffffffffffffffffffffffffffffffffffff1603610bf157610beb34856116c2565b50610c2c565b6040517f08c379a0000000000000000000000000000000000000000000000000000000008152600401610c2390612ed2565b60405180910390fd5b5b50610c3661125d565b5050505050565b610c45610fc7565b610c4f600061192b565b565b60008060009054906101000a900473ffffffffffffffffffffffffffffffffffffffff16905090565b600360009054906101000a900473ffffffffffffffffffffffffffffffffffffffff1681565b600160009054906101000a900473ffffffffffffffffffffffffffffffffffffffff1681565b610cce61104e565b6000610d1d87878080601f016020809104026020016040519081016040528093929190818152602001838380828437600081840152601f19601f82011690508083019250505050505050611071565b9050600260009054906101000a900473ffffffffffffffffffffffffffffffffffffffff1673ffffffffffffffffffffffffffffffffffffffff168173ffffffffffffffffffffffffffffffffffffffff161480610dc85750600360009054906101000a900473ffffffffffffffffffffffffffffffffffffffff1673ffffffffffffffffffffffffffffffffffffffff168173ffffffffffffffffffffffffffffffffffffffff16145b15610e2657610e208188888080601f016020809104026020016040519081016040528093929190818152602001838380828437600081840152601f19601f8201169050808301925050505050505087348888886119ef565b50610f0a565b600160009054906101000a900473ffffffffffffffffffffffffffffffffffffffff1673ffffffffffffffffffffffffffffffffffffffff168173ffffffffffffffffffffffffffffffffffffffff1603610ece5760003414610ebe576040517f08c379a0000000000000000000000000000000000000000000000000000000008152600401610eb590612f64565b60405180910390fd5b610ec88585611f69565b50610f09565b6040517f08c379a0000000000000000000000000000000000000000000000000000000008152600401610f0090612ed2565b60405180910390fd5b5b50610f1361125d565b505050505050565b610f23610fc7565b600073ffffffffffffffffffffffffffffffffffffffff168173ffffffffffffffffffffffffffffffffffffffff1603610f955760006040517f1e4fbdf7000000000000000000000000000000000000000000000000000000008152600401610f8c919061289c565b60405180910390fd5b610f9e8161192b565b50565b600460009054906101000a900473ffffffffffffffffffffffffffffffffffffffff1681565b610fcf6122b4565b73ffffffffffffffffffffffffffffffffffffffff16610fed610c51565b73ffffffffffffffffffffffffffffffffffffffff161461104c576110106122b4565b6040517f118cdaa7000000000000000000000000000000000000000000000000000000008152600401611043919061289c565b60405180910390fd5b565b6110566122bc565b60026110686110636122fd565b612328565b60000181905550565b60006040518060400160405280600681526020017f2457414745520000000000000000000000000000000000000000000000000000815250805190602001208280519060200120148061110657506040518060400160405280600581526020017f5741474552000000000000000000000000000000000000000000000000000000815250805190602001208280519060200120145b1561113557600160009054906101000a900473ffffffffffffffffffffffffffffffffffffffff169050611258565b6040518060400160405280600481526020017f5553444300000000000000000000000000000000000000000000000000000000815250805190602001208280519060200120036111a957600260009054906101000a900473ffffffffffffffffffffffffffffffffffffffff169050611258565b6040518060400160405280600481526020017f55534454000000000000000000000000000000000000000000000000000000008152508051906020012082805190602001200361121d57600360009054906101000a900473ffffffffffffffffffffffffffffffffffffffff169050611258565b6040517f08c379a000000000000000000000000000000000000000000000000000000000815260040161124f90612fd0565b60405180910390fd5b919050565b600161126f61126a6122fd565b612328565b60000181905550565b600080600460009054906101000a900473ffffffffffffffffffffffffffffffffffffffff1673ffffffffffffffffffffffffffffffffffffffff1663d47eed4585856040518363ffffffff1660e01b81526004016112d8929190613154565b602060405180830381865afa1580156112f5573d6000803e3d6000fd5b505050506040513d601f19601f820116820180604052508101906113199190612ba8565b905080861161135d576040517f08c379a0000000000000000000000000000000000000000000000000000000008152600401611354906131c4565b60405180910390fd5b600460009054906101000a900473ffffffffffffffffffffffffffffffffffffffff1673ffffffffffffffffffffffffffffffffffffffff1663ef9e5e288286866040518463ffffffff1660e01b81526004016113bb929190613154565b6000604051808303818588803b1580156113d457600080fd5b505af11580156113e8573d6000803e3d6000fd5b5050505050600081876113fb9190613213565b90506000600460009054906101000a900473ffffffffffffffffffffffffffffffffffffffff1673ffffffffffffffffffffffffffffffffffffffff1663a4ae35e0600554603c6040518363ffffffff1660e01b815260040161145f929190613282565b608060405180830381865afa15801561147c573d6000803e3d6000fd5b505050506040513d601f19601f820116820180604052508101906114a09190613455565b905060006114b8826000015183604001516006612332565b90506000670de0b6b3a764000082856114d19190613482565b6114db91906134f3565b905088811015611520576040517f08c379a000000000000000000000000000000000000000000000000000000000815260040161151790612c8d565b60405180910390fd5b808c73ffffffffffffffffffffffffffffffffffffffff166370a08231306040518263ffffffff1660e01b815260040161155a919061289c565b602060405180830381865afa158015611577573d6000803e3d6000fd5b505050506040513d601f19601f8201168201806040525081019061159b9190612ba8565b10156115dc576040517f08c379a00000000000000000000000000000000000000000000000000000000081526004016115d390613596565b60405180910390fd5b8b73ffffffffffffffffffffffffffffffffffffffff1663a9059cbb33836040518363ffffffff1660e01b8152600401611617929190612a99565b6020604051808303816000875af1158015611636573d6000803e3d6000fd5b505050506040513d601f19601f8201168201806040525081019061165a9190612afa565b503373ffffffffffffffffffffffffffffffffffffffff167f97288a5406e4e1041388d2f9b7c70f1008fff101e41390f67dbcfb3b7feedf7c8c868460016040516116a89493929190613633565b60405180910390a280955050505050509695505050505050565b60008083476116d19190613213565b90506000600160009054906101000a900473ffffffffffffffffffffffffffffffffffffffff1673ffffffffffffffffffffffffffffffffffffffff166370a08231306040518263ffffffff1660e01b8152600401611730919061289c565b602060405180830381865afa15801561174d573d6000803e3d6000fd5b505050506040513d601f19601f820116820180604052508101906117719190612ba8565b90506000821180156117835750600081115b6117c2576040517f08c379a00000000000000000000000000000000000000000000000000000000081526004016117b9906136cb565b60405180910390fd5b600085836117d091906136eb565b86836117dc9190613482565b6117e691906134f3565b90508481101561182b576040517f08c379a000000000000000000000000000000000000000000000000000000000815260040161182290612c8d565b60405180910390fd5b600160009054906101000a900473ffffffffffffffffffffffffffffffffffffffff1673ffffffffffffffffffffffffffffffffffffffff1663a9059cbb33836040518363ffffffff1660e01b8152600401611888929190612a99565b6020604051808303816000875af11580156118a7573d6000803e3d6000fd5b505050506040513d601f19601f820116820180604052508101906118cb9190612afa565b503373ffffffffffffffffffffffffffffffffffffffff167f97288a5406e4e1041388d2f9b7c70f1008fff101e41390f67dbcfb3b7feedf7c878360006040516119179392919061376b565b60405180910390a280935050505092915050565b60008060009054906101000a900473ffffffffffffffffffffffffffffffffffffffff169050816000806101000a81548173ffffffffffffffffffffffffffffffffffffffff021916908373ffffffffffffffffffffffffffffffffffffffff1602179055508173ffffffffffffffffffffffffffffffffffffffff168173ffffffffffffffffffffffffffffffffffffffff167f8be0079c531659141344cd1fd0a4f28419497f9722a3daafe3b4186f6b6457e060405160405180910390a35050565b600080600460009054906101000a900473ffffffffffffffffffffffffffffffffffffffff1673ffffffffffffffffffffffffffffffffffffffff1663d47eed4585856040518363ffffffff1660e01b8152600401611a4f929190613154565b602060405180830381865afa158015611a6c573d6000803e3d6000fd5b505050506040513d601f19601f82011682018060405250810190611a909190612ba8565b905080861015611ad5576040517f08c379a0000000000000000000000000000000000000000000000000000000008152600401611acc906131c4565b60405180910390fd5b6000811115611b6f57600460009054906101000a900473ffffffffffffffffffffffffffffffffffffffff1673ffffffffffffffffffffffffffffffffffffffff1663ef9e5e288286866040518463ffffffff1660e01b8152600401611b3c929190613154565b6000604051808303818588803b158015611b5557600080fd5b505af1158015611b69573d6000803e3d6000fd5b50505050505b6000600460009054906101000a900473ffffffffffffffffffffffffffffffffffffffff1673ffffffffffffffffffffffffffffffffffffffff1663a4ae35e0600554603c6040518363ffffffff1660e01b8152600401611bd1929190613282565b608060405180830381865afa158015611bee573d6000803e3d6000fd5b505050506040513d601f19601f82011682018060405250810190611c129190613455565b90506000611c2a826000015183604001516006612332565b9050600081670de0b6b3a76400008b611c439190613482565b611c4d91906134f3565b905087811015611c92576040517f08c379a0000000000000000000000000000000000000000000000000000000008152600401611c8990612c8d565b60405180910390fd5b80471015611cd5576040517f08c379a0000000000000000000000000000000000000000000000000000000008152600401611ccc90613827565b60405180910390fd5b8b73ffffffffffffffffffffffffffffffffffffffff166323b872dd33308d6040518463ffffffff1660e01b8152600401611d1293929190612cad565b6020604051808303816000875af1158015611d31573d6000803e3d6000fd5b505050506040513d601f19601f82011682018060405250810190611d559190612afa565b611d94576040517f08c379a0000000000000000000000000000000000000000000000000000000008152600401611d8b90613893565b60405180910390fd5b60003373ffffffffffffffffffffffffffffffffffffffff1682604051611dba906129f8565b60006040518083038185875af1925050503d8060008114611df7576040519150601f19603f3d011682016040523d82523d6000602084013e611dfc565b606091505b5050905080611e40576040517f08c379a0000000000000000000000000000000000000000000000000000000008152600401611e3790612a6a565b60405180910390fd5b848a1115611f015760003373ffffffffffffffffffffffffffffffffffffffff16868c611e6d9190613213565b604051611e79906129f8565b60006040518083038185875af1925050503d8060008114611eb6576040519150601f19603f3d011682016040523d82523d6000602084013e611ebb565b606091505b5050905080611eff576040517f08c379a0000000000000000000000000000000000000000000000000000000008152600401611ef6906138ff565b60405180910390fd5b505b3373ffffffffffffffffffffffffffffffffffffffff167fae9b3750ed0df4954f0387b6f907399281e021b8908c8385e4ece44305edbcb88d8d856001604051611f4e9493929190613633565b60405180910390a28195505050505050979650505050505050565b600080600160009054906101000a900473ffffffffffffffffffffffffffffffffffffffff1673ffffffffffffffffffffffffffffffffffffffff166370a08231306040518263ffffffff1660e01b8152600401611fc7919061289c565b602060405180830381865afa158015611fe4573d6000803e3d6000fd5b505050506040513d601f19601f820116820180604052508101906120089190612ba8565b9050600047905060008211801561201f5750600081115b61205e576040517f08c379a0000000000000000000000000000000000000000000000000000000008152600401612055906136cb565b60405180910390fd5b6000858361206c91906136eb565b86836120789190613482565b61208291906134f3565b9050848110156120c7576040517f08c379a00000000000000000000000000000000000000000000000000000000081526004016120be90612c8d565b60405180910390fd5b600160009054906101000a900473ffffffffffffffffffffffffffffffffffffffff1673ffffffffffffffffffffffffffffffffffffffff166323b872dd3330896040518463ffffffff1660e01b815260040161212693929190612cad565b6020604051808303816000875af1158015612145573d6000803e3d6000fd5b505050506040513d601f19601f820116820180604052508101906121699190612afa565b6121a8576040517f08c379a000000000000000000000000000000000000000000000000000000000815260040161219f9061396b565b60405180910390fd5b60003373ffffffffffffffffffffffffffffffffffffffff16826040516121ce906129f8565b60006040518083038185875af1925050503d806000811461220b576040519150601f19603f3d011682016040523d82523d6000602084013e612210565b606091505b5050905080612254576040517f08c379a000000000000000000000000000000000000000000000000000000000815260040161224b90612a6a565b60405180910390fd5b3373ffffffffffffffffffffffffffffffffffffffff167fae9b3750ed0df4954f0387b6f907399281e021b8908c8385e4ece44305edbcb88884600060405161229f9392919061376b565b60405180910390a28194505050505092915050565b600033905090565b6122c4612441565b156122fb576040517f3ee5aeb500000000000000000000000000000000000000000000000000000000815260040160405180910390fd5b565b60007f9b779b17422d0df92223018b32b4d1fa46e071723d6817e2486d003becc55f0060001b905090565b6000819050919050565b6000808460070b13612379576040517f08c379a0000000000000000000000000000000000000000000000000000000008152600401612370906139fd565b60405180910390fd5b60008467ffffffffffffffff16905060008460030b1215612410576000846123a090613a1d565b90508063ffffffff168460ff16106123e157808460ff166123c19190613a75565b600a6123cd9190613be0565b826123d89190613482565b9250505061243a565b8360ff16816123f09190613a75565b600a6123fc9190613be0565b8261240791906134f3565b9250505061243a565b8260ff168461241f9190613c2b565b600a61242b9190613be0565b816124369190613482565b9150505b9392505050565b600060026124556124506122fd565b612328565b6000015414905090565b6000819050919050565b6124728161245f565b82525050565b600060208201905061248d6000830184612469565b92915050565b6000604051905090565b600080fd5b600080fd5b600073ffffffffffffffffffffffffffffffffffffffff82169050919050565b60006124d2826124a7565b9050919050565b6124e2816124c7565b81146124ed57600080fd5b50565b6000813590506124ff816124d9565b92915050565b6000819050919050565b61251881612505565b811461252357600080fd5b50565b6000813590506125358161250f565b92915050565b600080604083850312156125525761255161249d565b5b6000612560858286016124f0565b925050602061257185828601612526565b9150509250929050565b6125848161245f565b811461258f57600080fd5b50565b6000813590506125a18161257b565b92915050565b600080604083850312156125be576125bd61249d565b5b60006125cc858286016124f0565b92505060206125dd85828601612592565b9150509250929050565b6000819050919050565b600061260c612607612602846124a7565b6125e7565b6124a7565b9050919050565b600061261e826125f1565b9050919050565b600061263082612613565b9050919050565b61264081612625565b82525050565b600060208201905061265b6000830184612637565b92915050565b600080fd5b600080fd5b600080fd5b60008083601f84011261268657612685612661565b5b8235905067ffffffffffffffff8111156126a3576126a2612666565b5b6020830191508360018202830111156126bf576126be61266b565b5b9250929050565b60008083601f8401126126dc576126db612661565b5b8235905067ffffffffffffffff8111156126f9576126f8612666565b5b6020830191508360208202830111156127155761271461266b565b5b9250929050565b60008060008060008060008060a0898b03121561273c5761273b61249d565b5b600089013567ffffffffffffffff81111561275a576127596124a2565b5b6127668b828c01612670565b9850985050602089013567ffffffffffffffff811115612789576127886124a2565b5b6127958b828c01612670565b965096505060406127a88b828c01612526565b94505060606127b98b828c01612526565b935050608089013567ffffffffffffffff8111156127da576127d96124a2565b5b6127e68b828c016126c6565b92509250509295985092959890939650565b6000806000806000606086880312156128145761281361249d565b5b600086013567ffffffffffffffff811115612832576128316124a2565b5b61283e88828901612670565b9550955050602061285188828901612526565b935050604086013567ffffffffffffffff811115612872576128716124a2565b5b61287e888289016126c6565b92509250509295509295909350565b612896816124c7565b82525050565b60006020820190506128b1600083018461288d565b92915050565b600080600080600080608087890312156128d4576128d361249d565b5b600087013567ffffffffffffffff8111156128f2576128f16124a2565b5b6128fe89828a01612670565b9650965050602061291189828a01612526565b945050604061292289828a01612526565b935050606087013567ffffffffffffffff811115612943576129426124a2565b5b61294f89828a016126c6565b92509250509295509295509295565b6000602082840312156129745761297361249d565b5b6000612982848285016124f0565b91505092915050565b600061299682612613565b9050919050565b6129a68161298b565b82525050565b60006020820190506129c1600083018461299d565b92915050565b600081905092915050565b50565b60006129e26000836129c7565b91506129ed826129d2565b600082019050919050565b6000612a03826129d5565b9150819050919050565b600082825260208201905092915050565b7f48424152207472616e73666572206661696c6564000000000000000000000000600082015250565b6000612a54601483612a0d565b9150612a5f82612a1e565b602082019050919050565b60006020820190508181036000830152612a8381612a47565b9050919050565b612a9381612505565b82525050565b6000604082019050612aae600083018561288d565b612abb6020830184612a8a565b9392505050565b60008115159050919050565b612ad781612ac2565b8114612ae257600080fd5b50565b600081519050612af481612ace565b92915050565b600060208284031215612b1057612b0f61249d565b5b6000612b1e84828501612ae5565b91505092915050565b7f4e6f20666565206e656564656420666f7220737461626c652d737461626c6500600082015250565b6000612b5d601f83612a0d565b9150612b6882612b27565b602082019050919050565b60006020820190508181036000830152612b8c81612b50565b9050919050565b600081519050612ba28161250f565b92915050565b600060208284031215612bbe57612bbd61249d565b5b6000612bcc84828501612b93565b91505092915050565b7f496e73756666696369656e74207472656173757279206c697175696469747900600082015250565b6000612c0b601f83612a0d565b9150612c1682612bd5565b602082019050919050565b60006020820190508181036000830152612c3a81612bfe565b9050919050565b7f536c69707061676520746f6f2068696768000000000000000000000000000000600082015250565b6000612c77601183612a0d565b9150612c8282612c41565b602082019050919050565b60006020820190508181036000830152612ca681612c6a565b9050919050565b6000606082019050612cc2600083018661288d565b612ccf602083018561288d565b612cdc6040830184612a8a565b949350505050565b7f5472616e73666572206661696c65640000000000000000000000000000000000600082015250565b6000612d1a600f83612a0d565b9150612d2582612ce4565b602082019050919050565b60006020820190508181036000830152612d4981612d0d565b9050919050565b82818337600083830152505050565b6000601f19601f8301169050919050565b6000612d7c8385612a0d565b9350612d89838584612d50565b612d9283612d5f565b840190509392505050565b60006080820190508181036000830152612db881888a612d70565b90508181036020830152612dcd818688612d70565b9050612ddc6040830185612a8a565b612de96060830184612a8a565b979650505050505050565b7f424c4f434b454420524f5554453a204d756c74692d686f70206f72205374616260008201527f6c653c2d3e5741474552206e6f7420616c6c6f77656400000000000000000000602082015250565b6000612e50603683612a0d565b9150612e5b82612df4565b604082019050919050565b60006020820190508181036000830152612e7f81612e43565b9050919050565b7f556e737570706f72746564207377617020706174680000000000000000000000600082015250565b6000612ebc601583612a0d565b9150612ec782612e86565b602082019050919050565b60006020820190508181036000830152612eeb81612eaf565b9050919050565b7f4e6f20484241522073686f756c642062652073656e7420666f7220746869732060008201527f7377617000000000000000000000000000000000000000000000000000000000602082015250565b6000612f4e602483612a0d565b9150612f5982612ef2565b604082019050919050565b60006020820190508181036000830152612f7d81612f41565b9050919050565b7f556e737570706f7274656420746f6b656e000000000000000000000000000000600082015250565b6000612fba601183612a0d565b9150612fc582612f84565b602082019050919050565b60006020820190508181036000830152612fe981612fad565b9050919050565b600082825260208201905092915050565b6000819050919050565b600082825260208201905092915050565b6000613028838561300b565b9350613035838584612d50565b61303e83612d5f565b840190509392505050565b600061305684848461301c565b90509392505050565b600080fd5b600080fd5b600080fd5b6000808335600160200384360303811261308b5761308a613069565b5b83810192508235915060208301925067ffffffffffffffff8211156130b3576130b261305f565b5b6001820236038313156130c9576130c8613064565b5b509250929050565b6000602082019050919050565b60006130ea8385612ff0565b9350836020840285016130fc84613001565b8060005b87811015613142578484038952613117828461306e565b613122868284613049565b955061312d846130d1565b935060208b019a505050600181019050613100565b50829750879450505050509392505050565b6000602082019050818103600083015261316f8184866130de565b90509392505050565b7f496e73756666696369656e74204842415220666f722050797468206665650000600082015250565b60006131ae601e83612a0d565b91506131b982613178565b602082019050919050565b600060208201905081810360008301526131dd816131a1565b9050919050565b7f4e487b7100000000000000000000000000000000000000000000000000000000600052601160045260246000fd5b600061321e82612505565b915061322983612505565b9250828203905081811115613241576132406131e4565b5b92915050565b6000819050919050565b600061326c61326761326284613247565b6125e7565b612505565b9050919050565b61327c81613251565b82525050565b60006040820190506132976000830185612469565b6132a46020830184613273565b9392505050565b600080fd5b7f4e487b7100000000000000000000000000000000000000000000000000000000600052604160045260246000fd5b6132e882612d5f565b810181811067ffffffffffffffff82111715613307576133066132b0565b5b80604052505050565b600061331a612493565b905061332682826132df565b919050565b60008160070b9050919050565b6133418161332b565b811461334c57600080fd5b50565b60008151905061335e81613338565b92915050565b600067ffffffffffffffff82169050919050565b61338181613364565b811461338c57600080fd5b50565b60008151905061339e81613378565b92915050565b60008160030b9050919050565b6133ba816133a4565b81146133c557600080fd5b50565b6000815190506133d7816133b1565b92915050565b6000608082840312156133f3576133f26132ab565b5b6133fd6080613310565b9050600061340d8482850161334f565b60008301525060206134218482850161338f565b6020830152506040613435848285016133c8565b604083015250606061344984828501612b93565b60608301525092915050565b60006080828403121561346b5761346a61249d565b5b6000613479848285016133dd565b91505092915050565b600061348d82612505565b915061349883612505565b92508282026134a681612505565b915082820484148315176134bd576134bc6131e4565b5b5092915050565b7f4e487b7100000000000000000000000000000000000000000000000000000000600052601260045260246000fd5b60006134fe82612505565b915061350983612505565b925082613519576135186134c4565b5b828204905092915050565b7f496e73756666696369656e7420747265617375727920737461626c65636f696e60008201527f206c697175696469747900000000000000000000000000000000000000000000602082015250565b6000613580602a83612a0d565b915061358b82613524565b604082019050919050565b600060208201905081810360008301526135af81613573565b9050919050565b600081519050919050565b60005b838110156135df5780820151818401526020810190506135c4565b60008484015250505050565b60006135f6826135b6565b6136008185612a0d565b93506136108185602086016135c1565b61361981612d5f565b840191505092915050565b61362d81612ac2565b82525050565b6000608082019050818103600083015261364d81876135eb565b905061365c6020830186612a8a565b6136696040830185612a8a565b6136766060830184613624565b95945050505050565b7f506f6f6c2068617320696e73756666696369656e74206c697175696469747900600082015250565b60006136b5601f83612a0d565b91506136c08261367f565b602082019050919050565b600060208201905081810360008301526136e4816136a8565b9050919050565b60006136f682612505565b915061370183612505565b9250828201905080821115613719576137186131e4565b5b92915050565b7f5741474552000000000000000000000000000000000000000000000000000000600082015250565b6000613755600583612a0d565b91506137608261371f565b602082019050919050565b6000608082019050818103600083015261378481613748565b90506137936020830186612a8a565b6137a06040830185612a8a565b6137ad6060830184613624565b949350505050565b7f496e73756666696369656e742074726561737572792048424152206c6971756960008201527f6469747900000000000000000000000000000000000000000000000000000000602082015250565b6000613811602483612a0d565b915061381c826137b5565b604082019050919050565b6000602082019050818103600083015261384081613804565b9050919050565b7f537461626c65636f696e207472616e73666572206661696c6564000000000000600082015250565b600061387d601a83612a0d565b915061388882613847565b602082019050919050565b600060208201905081810360008301526138ac81613870565b9050919050565b7f46656520726566756e64206661696c6564000000000000000000000000000000600082015250565b60006138e9601183612a0d565b91506138f4826138b3565b602082019050919050565b60006020820190508181036000830152613918816138dc565b9050919050565b7f5741474552207472616e73666572206661696c65640000000000000000000000600082015250565b6000613955601583612a0d565b91506139608261391f565b602082019050919050565b6000602082019050818103600083015261398481613948565b9050919050565b7f4e65676174697665206f72207a65726f2070726963652066726f6d204f72616360008201527f6c65000000000000000000000000000000000000000000000000000000000000602082015250565b60006139e7602283612a0d565b91506139f28261398b565b604082019050919050565b60006020820190508181036000830152613a16816139da565b9050919050565b6000613a28826133a4565b91507fffffffffffffffffffffffffffffffffffffffffffffffffffffffff800000008203613a5a57613a596131e4565b5b816000039050919050565b600063ffffffff82169050919050565b6000613a8082613a65565b9150613a8b83613a65565b9250828203905063ffffffff811115613aa757613aa66131e4565b5b92915050565b60008160011c9050919050565b6000808291508390505b6001851115613b0457808604811115613ae057613adf6131e4565b5b6001851615613aef5780820291505b8081029050613afd85613aad565b9450613ac4565b94509492505050565b600082613b1d5760019050613bd9565b81613b2b5760009050613bd9565b8160018114613b415760028114613b4b57613b7a565b6001915050613bd9565b60ff841115613b5d57613b5c6131e4565b5b8360020a915084821115613b7457613b736131e4565b5b50613bd9565b5060208310610133831016604e8410600b8410161715613baf5782820a905083811115613baa57613ba96131e4565b5b613bd9565b613bbc8484846001613aba565b92509050818404811115613bd357613bd26131e4565b5b81810290505b9392505050565b6000613beb82612505565b9150613bf683613a65565b9250613c237fffffffffffffffffffffffffffffffffffffffffffffffffffffffffffffffff8484613b0d565b905092915050565b6000613c3682613a65565b9150613c4183613a65565b9250828201905063ffffffff811115613c5d57613c5c6131e4565b5b9291505056fea2646970667358221220100cb430af990cafce875669ade5d14547002d2114846781e5dd50ddd2193b3c64736f6c63430008140033",
  "linkReferences": {},
  "deployedLinkReferences": {}
}