{
  "_format": "hh-sol-artifact-1",
  "contractName": "HybridWagerSwapRouter",
  "sourceName": "contracts/HybridWagerSwapRouter.sol",
  "abi": [
    {
      "inputs": [
        {
          "internalType": "address",
          "name": "_wagerToken",
          "type": "address"
        },
        {
          "internalType": "address",
          "name": "_usdcToken",
          "type": "address"
        },
        {
          "internalType": "address",
          "name": "_usdtToken",
          "type": "address"
        },
        {
          "internalType": "uint256",
          "name": "_initialHbarUsdPrice",
          "type": "uint256"
        }
      ],
      "stateMutability": "nonpayable",
      "type": "constructor"
    },
    {
      "inputs": [
        {
          "internalType": "address",
          "name": "owner",
          "type": "address"
        }
      ],
      "name": "OwnableInvalidOwner",
      "type": "error"
    },
    {
      "inputs": [
        {
          "internalType": "address",
          "name": "account",
          "type": "address"
        }
      ],
      "name": "OwnableUnauthorizedAccount",
      "type": "error"
    },
    {
      "inputs": [],
      "name": "ReentrancyGuardReentrantCall",
      "type": "error"
    },
    {
      "anonymous": false,
      "inputs": [
        {
          "indexed": false,
          "internalType": "uint256",
          "name": "oldPrice",
          "type": "uint256"
        },
        {
          "indexed": false,
          "internalType": "uint256",
          "name": "newPrice",
          "type": "uint256"
        }
      ],
      "name": "HbarUsdPriceUpdated",
      "type": "event"
    },
    {
      "anonymous": false,
      "inputs": [
        {
          "indexed": true,
          "internalType": "address",
          "name": "previousOwner",
          "type": "address"
        },
        {
          "indexed": true,
          "internalType": "address",
          "name": "newOwner",
          "type": "address"
        }
      ],
      "name": "OwnershipTransferred",
      "type": "event"
    },
    {
      "anonymous": false,
      "inputs": [
        {
          "indexed": true,
          "internalType": "address",
          "name": "user",
          "type": "address"
        },
        {
          "indexed": false,
          "internalType": "string",
          "name": "tokenOut",
          "type": "string"
        },
        {
          "indexed": false,
          "internalType": "uint256",
          "name": "hbarIn",
          "type": "uint256"
        },
        {
          "indexed": false,
          "internalType": "uint256",
          "name": "tokenOut_amount",
          "type": "uint256"
        }
      ],
      "name": "SwapHbarForToken",
      "type": "event"
    },
    {
      "anonymous": false,
      "inputs": [
        {
          "indexed": true,
          "internalType": "address",
          "name": "user",
          "type": "address"
        },
        {
          "indexed": false,
          "internalType": "string",
          "name": "tokenIn",
          "type": "string"
        },
        {
          "indexed": false,
          "internalType": "uint256",
          "name": "tokenIn_amount",
          "type": "uint256"
        },
        {
          "indexed": false,
          "internalType": "uint256",
          "name": "hbarOut",
          "type": "uint256"
        }
      ],
      "name": "SwapTokenForHbar",
      "type": "event"
    },
    {
      "anonymous": false,
      "inputs": [
        {
          "indexed": true,
          "internalType": "address",
          "name": "user",
          "type": "address"
        },
        {
          "indexed": false,
          "internalType": "string",
          "name": "tokenIn",
          "type": "string"
        },
        {
          "indexed": false,
          "internalType": "string",
          "name": "tokenOut",
          "type": "string"
        },
        {
          "indexed": false,
          "internalType": "uint256",
          "name": "amountIn",
          "type": "uint256"
        },
        {
          "indexed": false,
          "internalType": "uint256",
          "name": "amountOut",
          "type": "uint256"
        }
      ],
      "name": "SwapTokenForToken",
      "type": "event"
    },
    {
      "inputs": [],
      "name": "hbarUsdPrice",
      "outputs": [
        {
          "internalType": "uint256",
          "name": "",
          "type": "uint256"
        }
      ],
      "stateMutability": "view",
      "type": "function"
    },
    {
      "inputs": [],
      "name": "owner",
      "outputs": [
        {
          "internalType": "address",
          "name": "",
          "type": "address"
        }
      ],
      "stateMutability": "view",
      "type": "function"
    },
    {
      "inputs": [],
      "name": "renounceOwnership",
      "outputs": [],
      "stateMutability": "nonpayable",
      "type": "function"
    },
    {
      "inputs": [
        {
          "internalType": "uint256",
          "name": "newPrice",
          "type": "uint256"
        }
      ],
      "name": "setHbarUsdPrice",
      "outputs": [],
      "stateMutability": "nonpayable",
      "type": "function"
    },
    {
      "inputs": [
        {
          "internalType": "string",
          "name": "tokenOutSymbol",
          "type": "string"
        },
        {
          "internalType": "uint256",
          "name": "minAmountOut",
          "type": "uint256"
        }
      ],
      "name": "swapHbarForToken",
      "outputs": [],
      "stateMutability": "payable",
      "type": "function"
    },
    {
      "inputs": [
        {
          "internalType": "string",
          "name": "tokenInSymbol",
          "type": "string"
        },
        {
          "internalType": "uint256",
          "name": "amountIn",
          "type": "uint256"
        },
        {
          "internalType": "uint256",
          "name": "minAmountOut",
          "type": "uint256"
        }
      ],
      "name": "swapTokenForHbar",
      "outputs": [],
      "stateMutability": "payable",
      "type": "function"
    },
    {
      "inputs": [
        {
          "internalType": "string",
          "name": "tokenInSymbol",
          "type": "string"
        },
        {
          "internalType": "string",
          "name": "tokenOutSymbol",
          "type": "string"
        },
        {
          "internalType": "uint256",
          "name": "amountIn",
          "type": "uint256"
        },
        {
          "internalType": "uint256",
          "name": "minAmountOut",
          "type": "uint256"
        }
      ],
      "name": "swapTokenForToken",
      "outputs": [],
      "stateMutability": "nonpayable",
      "type": "function"
    },
    {
      "inputs": [
        {
          "internalType": "address",
          "name": "newOwner",
          "type": "address"
        }
      ],
      "name": "transferOwnership",
      "outputs": [],
      "stateMutability": "nonpayable",
      "type": "function"
    },
    {
      "inputs": [],
      "name": "usdcToken",
      "outputs": [
        {
          "internalType": "contract IERC20",
          "name": "",
          "type": "address"
        }
      ],
      "stateMutability": "view",
      "type": "function"
    },
    {
      "inputs": [],
      "name": "usdtToken",
      "outputs": [
        {
          "internalType": "contract IERC20",
          "name": "",
          "type": "address"
        }
      ],
      "stateMutability": "view",
      "type": "function"
    },
    {
      "inputs": [],
      "name": "wagerToken",
      "outputs": [
        {
          "internalType": "contract IERC20",
          "name": "",
          "type": "address"
        }
      ],
      "stateMutability": "view",
      "type": "function"
    },
    {
      "inputs": [
        {
          "internalType": "address",
          "name": "tokenAddress",
          "type": "address"
        },
        {
          "internalType": "uint256",
          "name": "amount",
          "type": "uint256"
        }
      ],
      "name": "withdrawLiquidity",
      "outputs": [],
      "stateMutability": "nonpayable",
      "type": "function"
    },
    {
      "stateMutability": "payable",
      "type": "receive"
    }
  ],
  "bytecode": "0x60806040523480156200001157600080fd5b50604051620031643803806200316483398181016040528101906200003791906200035a565b33600073ffffffffffffffffffffffffffffffffffffffff168173ffffffffffffffffffffffffffffffffffffffff1603620000ad5760006040517f1e4fbdf7000000000000000000000000000000000000000000000000000000008152600401620000a49190620003dd565b60405180910390fd5b620000be81620001bc60201b60201c565b506001620000e1620000d56200028060201b60201c565b620002ab60201b60201c565b6000018190555083600160006101000a81548173ffffffffffffffffffffffffffffffffffffffff021916908373ffffffffffffffffffffffffffffffffffffffff16021790555082600260006101000a81548173ffffffffffffffffffffffffffffffffffffffff021916908373ffffffffffffffffffffffffffffffffffffffff16021790555081600360006101000a81548173ffffffffffffffffffffffffffffffffffffffff021916908373ffffffffffffffffffffffffffffffffffffffff1602179055508060048190555050505050620003fa565b60008060009054906101000a900473ffffffffffffffffffffffffffffffffffffffff169050816000806101000a81548173ffffffffffffffffffffffffffffffffffffffff021916908373ffffffffffffffffffffffffffffffffffffffff1602179055508173ffffffffffffffffffffffffffffffffffffffff168173ffffffffffffffffffffffffffffffffffffffff167f8be0079c531659141344cd1fd0a4f28419497f9722a3daafe3b4186f6b6457e060405160405180910390a35050565b60007f9b779b17422d0df92223018b32b4d1fa46e071723d6817e2486d003becc55f0060001b905090565b6000819050919050565b600080fd5b600073ffffffffffffffffffffffffffffffffffffffff82169050919050565b6000620002e782620002ba565b9050919050565b620002f981620002da565b81146200030557600080fd5b50565b6000815190506200031981620002ee565b92915050565b6000819050919050565b62000334816200031f565b81146200034057600080fd5b50565b600081519050620003548162000329565b92915050565b60008060008060808587031215620003775762000376620002b5565b5b6000620003878782880162000308565b94505060206200039a8782880162000308565b9350506040620003ad8782880162000308565b9250506060620003c08782880162000343565b91505092959194509250565b620003d781620002da565b82525050565b6000602082019050620003f46000830184620003cc565b92915050565b612d5a806200040a6000396000f3fe6080604052600436106100ab5760003560e01c80638da5cb5b116100645780638da5cb5b1461019f578063a98ad46c146101ca578063adad3685146101f5578063b32fa4fc14610220578063d2e639401461023c578063f2fde38b14610258576100b2565b806306d47de9146100b757806311e1a2f5146100e057806311eac85514610109578063715018a6146101345780637b4d916b1461014b5780637b868e9814610174576100b2565b366100b257005b600080fd5b3480156100c357600080fd5b506100de60048036038101906100d99190611e58565b610281565b005b3480156100ec57600080fd5b5061010760048036038101906101029190611e98565b610401565b005b34801561011557600080fd5b5061011e610491565b60405161012b9190611f24565b60405180910390f35b34801561014057600080fd5b506101496104b7565b005b34801561015757600080fd5b50610172600480360381019061016d9190611fa4565b6104cb565b005b34801561018057600080fd5b506101896109f9565b604051610196919061205a565b60405180910390f35b3480156101ab57600080fd5b506101b46109ff565b6040516101c19190612084565b60405180910390f35b3480156101d657600080fd5b506101df610a28565b6040516101ec9190611f24565b60405180910390f35b34801561020157600080fd5b5061020a610a4e565b6040516102179190611f24565b60405180910390f35b61023a6004803603810190610235919061209f565b610a74565b005b610256600480360381019061025191906120ff565b610cc3565b005b34801561026457600080fd5b5061027f600480360381019061027a9190612173565b610f13565b005b610289610f99565b600073ffffffffffffffffffffffffffffffffffffffff168273ffffffffffffffffffffffffffffffffffffffff16036103765760006102c76109ff565b73ffffffffffffffffffffffffffffffffffffffff16826040516102ea906121d1565b60006040518083038185875af1925050503d8060008114610327576040519150601f19603f3d011682016040523d82523d6000602084013e61032c565b606091505b5050905080610370576040517f08c379a000000000000000000000000000000000000000000000000000000000815260040161036790612243565b60405180910390fd5b506103fd565b8173ffffffffffffffffffffffffffffffffffffffff1663a9059cbb61039a6109ff565b836040518363ffffffff1660e01b81526004016103b8929190612263565b6020604051808303816000875af11580156103d7573d6000803e3d6000fd5b505050506040513d601f19601f820116820180604052508101906103fb91906122c4565b505b5050565b610409610f99565b6000811161044c576040517f08c379a00000000000000000000000000000000000000000000000000000000081526004016104439061233d565b60405180910390fd5b7f700fee6a250299ced1754b363195c30a890640f2797d4b350cf2f9fa70a77b076004548260405161047f92919061235d565b60405180910390a18060048190555050565b600260009054906101000a900473ffffffffffffffffffffffffffffffffffffffff1681565b6104bf610f99565b6104c96000611020565b565b6104d36110e4565b600061052287878080601f016020809104026020016040519081016040528093929190818152602001838380828437600081840152601f19601f82011690508083019250505050505050611107565b9050600061057386868080601f016020809104026020016040519081016040528093929190818152602001838380828437600081840152601f19601f82011690508083019250505050505050611107565b9050600260009054906101000a900473ffffffffffffffffffffffffffffffffffffffff1673ffffffffffffffffffffffffffffffffffffffff168273ffffffffffffffffffffffffffffffffffffffff16148061061e5750600360009054906101000a900473ffffffffffffffffffffffffffffffffffffffff1673ffffffffffffffffffffffffffffffffffffffff168273ffffffffffffffffffffffffffffffffffffffff16145b80156106cf5750600260009054906101000a900473ffffffffffffffffffffffffffffffffffffffff1673ffffffffffffffffffffffffffffffffffffffff168173ffffffffffffffffffffffffffffffffffffffff1614806106ce5750600360009054906101000a900473ffffffffffffffffffffffffffffffffffffffff1673ffffffffffffffffffffffffffffffffffffffff168173ffffffffffffffffffffffffffffffffffffffff16145b5b156109ac57838173ffffffffffffffffffffffffffffffffffffffff166370a08231306040518263ffffffff1660e01b815260040161070e9190612084565b602060405180830381865afa15801561072b573d6000803e3d6000fd5b505050506040513d601f19601f8201168201806040525081019061074f919061239b565b1015610790576040517f08c379a000000000000000000000000000000000000000000000000000000000815260040161078790612414565b60405180910390fd5b828410156107d3576040517f08c379a00000000000000000000000000000000000000000000000000000000081526004016107ca90612480565b60405180910390fd5b8173ffffffffffffffffffffffffffffffffffffffff166323b872dd3330876040518463ffffffff1660e01b8152600401610810939291906124a0565b6020604051808303816000875af115801561082f573d6000803e3d6000fd5b505050506040513d601f19601f8201168201806040525081019061085391906122c4565b610892576040517f08c379a000000000000000000000000000000000000000000000000000000000815260040161088990612523565b60405180910390fd5b8073ffffffffffffffffffffffffffffffffffffffff1663a9059cbb33866040518363ffffffff1660e01b81526004016108cd929190612263565b6020604051808303816000875af11580156108ec573d6000803e3d6000fd5b505050506040513d601f19601f8201168201806040525081019061091091906122c4565b61094f576040517f08c379a000000000000000000000000000000000000000000000000000000000815260040161094690612523565b60405180910390fd5b3373ffffffffffffffffffffffffffffffffffffffff167ff1d8f6f2110f1b36d4d6a72c57541a6d5bbcf53632050a7a8c8ead3750c765c189898989898a60405161099f96959493929190612590565b60405180910390a26109e7565b6040517f08c379a00000000000000000000000000000000000000000000000000000000081526004016109de90612659565b60405180910390fd5b50506109f16112e5565b505050505050565b60045481565b60008060009054906101000a900473ffffffffffffffffffffffffffffffffffffffff16905090565b600360009054906101000a900473ffffffffffffffffffffffffffffffffffffffff1681565b600160009054906101000a900473ffffffffffffffffffffffffffffffffffffffff1681565b610a7c6110e4565b60003411610abf576040517f08c379a0000000000000000000000000000000000000000000000000000000008152600401610ab6906126c5565b60405180910390fd5b6000610b0e84848080601f016020809104026020016040519081016040528093929190818152602001838380828437600081840152601f19601f82011690508083019250505050505050611107565b9050600260009054906101000a900473ffffffffffffffffffffffffffffffffffffffff1673ffffffffffffffffffffffffffffffffffffffff168173ffffffffffffffffffffffffffffffffffffffff161480610bb95750600360009054906101000a900473ffffffffffffffffffffffffffffffffffffffff1673ffffffffffffffffffffffffffffffffffffffff168173ffffffffffffffffffffffffffffffffffffffff16145b15610c1457610c0e8185858080601f016020809104026020016040519081016040528093929190818152602001838380828437600081840152601f19601f820116905080830192505050505050503485611300565b50610cb5565b600160009054906101000a900473ffffffffffffffffffffffffffffffffffffffff1673ffffffffffffffffffffffffffffffffffffffff168173ffffffffffffffffffffffffffffffffffffffff1603610c7957610c7334836114fe565b50610cb4565b6040517f08c379a0000000000000000000000000000000000000000000000000000000008152600401610cab90612731565b60405180910390fd5b5b50610cbe6112e5565b505050565b610ccb6110e4565b60003414610d0e576040517f08c379a0000000000000000000000000000000000000000000000000000000008152600401610d05906127c3565b60405180910390fd5b6000610d5d85858080601f016020809104026020016040519081016040528093929190818152602001838380828437600081840152601f19601f82011690508083019250505050505050611107565b9050600260009054906101000a900473ffffffffffffffffffffffffffffffffffffffff1673ffffffffffffffffffffffffffffffffffffffff168173ffffffffffffffffffffffffffffffffffffffff161480610e085750600360009054906101000a900473ffffffffffffffffffffffffffffffffffffffff1673ffffffffffffffffffffffffffffffffffffffff168173ffffffffffffffffffffffffffffffffffffffff16145b15610e6357610e5d8186868080601f016020809104026020016040519081016040528093929190818152602001838380828437600081840152601f19601f820116905080830192505050505050508585611764565b50610f04565b600160009054906101000a900473ffffffffffffffffffffffffffffffffffffffff1673ffffffffffffffffffffffffffffffffffffffff168173ffffffffffffffffffffffffffffffffffffffff1603610ec857610ec283836119d6565b50610f03565b6040517f08c379a0000000000000000000000000000000000000000000000000000000008152600401610efa90612731565b60405180910390fd5b5b50610f0d6112e5565b50505050565b610f1b610f99565b600073ffffffffffffffffffffffffffffffffffffffff168173ffffffffffffffffffffffffffffffffffffffff1603610f8d5760006040517f1e4fbdf7000000000000000000000000000000000000000000000000000000008152600401610f849190612084565b60405180910390fd5b610f9681611020565b50565b610fa1611d1e565b73ffffffffffffffffffffffffffffffffffffffff16610fbf6109ff565b73ffffffffffffffffffffffffffffffffffffffff161461101e57610fe2611d1e565b6040517f118cdaa70000000000000000000000000000000000000000000000000000000081526004016110159190612084565b60405180910390fd5b565b60008060009054906101000a900473ffffffffffffffffffffffffffffffffffffffff169050816000806101000a81548173ffffffffffffffffffffffffffffffffffffffff021916908373ffffffffffffffffffffffffffffffffffffffff1602179055508173ffffffffffffffffffffffffffffffffffffffff168173ffffffffffffffffffffffffffffffffffffffff167f8be0079c531659141344cd1fd0a4f28419497f9722a3daafe3b4186f6b6457e060405160405180910390a35050565b6110ec611d26565b60026110fe6110f9611d67565b611d92565b60000181905550565b600080828051906020012090506040518060400160405280600681526020017f24574147455200000000000000000000000000000000000000000000000000008152508051906020012081148061119957506040518060400160405280600581526020017f57414745520000000000000000000000000000000000000000000000000000008152508051906020012081145b156111c957600160009054906101000a900473ffffffffffffffffffffffffffffffffffffffff169150506112e0565b6040518060400160405280600481526020017f555344430000000000000000000000000000000000000000000000000000000081525080519060200120810361123757600260009054906101000a900473ffffffffffffffffffffffffffffffffffffffff169150506112e0565b6040518060400160405280600481526020017f55534454000000000000000000000000000000000000000000000000000000008152508051906020012081036112a557600360009054906101000a900473ffffffffffffffffffffffffffffffffffffffff169150506112e0565b6040517f08c379a00000000000000000000000000000000000000000000000000000000081526004016112d79061282f565b60405180910390fd5b919050565b60016112f76112f2611d67565b611d92565b60000181905550565b6000806305f5e10060045485611316919061287e565b61132091906128ef565b905082811015611365576040517f08c379a000000000000000000000000000000000000000000000000000000000815260040161135c90612480565b60405180910390fd5b808673ffffffffffffffffffffffffffffffffffffffff166370a08231306040518263ffffffff1660e01b815260040161139f9190612084565b602060405180830381865afa1580156113bc573d6000803e3d6000fd5b505050506040513d601f19601f820116820180604052508101906113e0919061239b565b1015611421576040517f08c379a000000000000000000000000000000000000000000000000000000000815260040161141890612992565b60405180910390fd5b8573ffffffffffffffffffffffffffffffffffffffff1663a9059cbb33836040518363ffffffff1660e01b815260040161145c929190612263565b6020604051808303816000875af115801561147b573d6000803e3d6000fd5b505050506040513d601f19601f8201168201806040525081019061149f91906122c4565b503373ffffffffffffffffffffffffffffffffffffffff167f74b662977a65959342036661caf67bf7e607f2f2845ffb0c458e32ba2f1b658f8686846040516114ea93929190612a20565b60405180910390a280915050949350505050565b600080834761150d9190612a5e565b90506000600160009054906101000a900473ffffffffffffffffffffffffffffffffffffffff1673ffffffffffffffffffffffffffffffffffffffff166370a08231306040518263ffffffff1660e01b815260040161156c9190612084565b602060405180830381865afa158015611589573d6000803e3d6000fd5b505050506040513d601f19601f820116820180604052508101906115ad919061239b565b90506000821180156115bf5750600081115b6115fe576040517f08c379a00000000000000000000000000000000000000000000000000000000081526004016115f590612ade565b60405180910390fd5b6000858361160c9190612afe565b8683611618919061287e565b61162291906128ef565b905084811015611667576040517f08c379a000000000000000000000000000000000000000000000000000000000815260040161165e90612480565b60405180910390fd5b600160009054906101000a900473ffffffffffffffffffffffffffffffffffffffff1673ffffffffffffffffffffffffffffffffffffffff1663a9059cbb33836040518363ffffffff1660e01b81526004016116c4929190612263565b6020604051808303816000875af11580156116e3573d6000803e3d6000fd5b505050506040513d601f19601f8201168201806040525081019061170791906122c4565b503373ffffffffffffffffffffffffffffffffffffffff167f74b662977a65959342036661caf67bf7e607f2f2845ffb0c458e32ba2f1b658f8783604051611750929190612b7e565b60405180910390a280935050505092915050565b6000806004546305f5e1008561177a919061287e565b61178491906128ef565b9050828110156117c9576040517f08c379a00000000000000000000000000000000000000000000000000000000081526004016117c090612480565b60405180910390fd5b8047101561180c576040517f08c379a000000000000000000000000000000000000000000000000000000000815260040161180390612c2c565b60405180910390fd5b8573ffffffffffffffffffffffffffffffffffffffff166323b872dd3330876040518463ffffffff1660e01b8152600401611849939291906124a0565b6020604051808303816000875af1158015611868573d6000803e3d6000fd5b505050506040513d601f19601f8201168201806040525081019061188c91906122c4565b6118cb576040517f08c379a00000000000000000000000000000000000000000000000000000000081526004016118c290612c98565b60405180910390fd5b60003373ffffffffffffffffffffffffffffffffffffffff16826040516118f1906121d1565b60006040518083038185875af1925050503d806000811461192e576040519150601f19603f3d011682016040523d82523d6000602084013e611933565b606091505b5050905080611977576040517f08c379a000000000000000000000000000000000000000000000000000000000815260040161196e90612243565b60405180910390fd5b3373ffffffffffffffffffffffffffffffffffffffff167fe3de324b3cb785302de9395062e9f223baf7b6ab98ad5f2a5faaec2780d68e1d8787856040516119c193929190612a20565b60405180910390a28192505050949350505050565b600080600160009054906101000a900473ffffffffffffffffffffffffffffffffffffffff1673ffffffffffffffffffffffffffffffffffffffff166370a08231306040518263ffffffff1660e01b8152600401611a349190612084565b602060405180830381865afa158015611a51573d6000803e3d6000fd5b505050506040513d601f19601f82011682018060405250810190611a75919061239b565b90506000479050600082118015611a8c5750600081115b611acb576040517f08c379a0000000000000000000000000000000000000000000000000000000008152600401611ac290612ade565b60405180910390fd5b60008583611ad99190612afe565b8683611ae5919061287e565b611aef91906128ef565b905084811015611b34576040517f08c379a0000000000000000000000000000000000000000000000000000000008152600401611b2b90612480565b60405180910390fd5b600160009054906101000a900473ffffffffffffffffffffffffffffffffffffffff1673ffffffffffffffffffffffffffffffffffffffff166323b872dd3330896040518463ffffffff1660e01b8152600401611b93939291906124a0565b6020604051808303816000875af1158015611bb2573d6000803e3d6000fd5b505050506040513d601f19601f82011682018060405250810190611bd691906122c4565b611c15576040517f08c379a0000000000000000000000000000000000000000000000000000000008152600401611c0c90612d04565b60405180910390fd5b60003373ffffffffffffffffffffffffffffffffffffffff1682604051611c3b906121d1565b60006040518083038185875af1925050503d8060008114611c78576040519150601f19603f3d011682016040523d82523d6000602084013e611c7d565b606091505b5050905080611cc1576040517f08c379a0000000000000000000000000000000000000000000000000000000008152600401611cb890612243565b60405180910390fd5b3373ffffffffffffffffffffffffffffffffffffffff167fe3de324b3cb785302de9395062e9f223baf7b6ab98ad5f2a5faaec2780d68e1d8884604051611d09929190612b7e565b60405180910390a28194505050505092915050565b600033905090565b611d2e611d9c565b15611d65576040517f3ee5aeb500000000000000000000000000000000000000000000000000000000815260040160405180910390fd5b565b60007f9b779b17422d0df92223018b32b4d1fa46e071723d6817e2486d003becc55f0060001b905090565b6000819050919050565b60006002611db0611dab611d67565b611d92565b6000015414905090565b600080fd5b600080fd5b600073ffffffffffffffffffffffffffffffffffffffff82169050919050565b6000611def82611dc4565b9050919050565b611dff81611de4565b8114611e0a57600080fd5b50565b600081359050611e1c81611df6565b92915050565b6000819050919050565b611e3581611e22565b8114611e4057600080fd5b50565b600081359050611e5281611e2c565b92915050565b60008060408385031215611e6f57611e6e611dba565b5b6000611e7d85828601611e0d565b9250506020611e8e85828601611e43565b9150509250929050565b600060208284031215611eae57611ead611dba565b5b6000611ebc84828501611e43565b91505092915050565b6000819050919050565b6000611eea611ee5611ee084611dc4565b611ec5565b611dc4565b9050919050565b6000611efc82611ecf565b9050919050565b6000611f0e82611ef1565b9050919050565b611f1e81611f03565b82525050565b6000602082019050611f396000830184611f15565b92915050565b600080fd5b600080fd5b600080fd5b60008083601f840112611f6457611f63611f3f565b5b8235905067ffffffffffffffff811115611f8157611f80611f44565b5b602083019150836001820283011115611f9d57611f9c611f49565b5b9250929050565b60008060008060008060808789031215611fc157611fc0611dba565b5b600087013567ffffffffffffffff811115611fdf57611fde611dbf565b5b611feb89828a01611f4e565b9650965050602087013567ffffffffffffffff81111561200e5761200d611dbf565b5b61201a89828a01611f4e565b9450945050604061202d89828a01611e43565b925050606061203e89828a01611e43565b9150509295509295509295565b61205481611e22565b82525050565b600060208201905061206f600083018461204b565b92915050565b61207e81611de4565b82525050565b60006020820190506120996000830184612075565b92915050565b6000806000604084860312156120b8576120b7611dba565b5b600084013567ffffffffffffffff8111156120d6576120d5611dbf565b5b6120e286828701611f4e565b935093505060206120f586828701611e43565b9150509250925092565b6000806000806060858703121561211957612118611dba565b5b600085013567ffffffffffffffff81111561213757612136611dbf565b5b61214387828801611f4e565b9450945050602061215687828801611e43565b925050604061216787828801611e43565b91505092959194509250565b60006020828403121561218957612188611dba565b5b600061219784828501611e0d565b91505092915050565b600081905092915050565b50565b60006121bb6000836121a0565b91506121c6826121ab565b600082019050919050565b60006121dc826121ae565b9150819050919050565b600082825260208201905092915050565b7f48424152207472616e73666572206661696c6564000000000000000000000000600082015250565b600061222d6014836121e6565b9150612238826121f7565b602082019050919050565b6000602082019050818103600083015261225c81612220565b9050919050565b60006040820190506122786000830185612075565b612285602083018461204b565b9392505050565b60008115159050919050565b6122a18161228c565b81146122ac57600080fd5b50565b6000815190506122be81612298565b92915050565b6000602082840312156122da576122d9611dba565b5b60006122e8848285016122af565b91505092915050565b7f5072696365206d757374206265203e2030000000000000000000000000000000600082015250565b60006123276011836121e6565b9150612332826122f1565b602082019050919050565b600060208201905081810360008301526123568161231a565b9050919050565b6000604082019050612372600083018561204b565b61237f602083018461204b565b9392505050565b60008151905061239581611e2c565b92915050565b6000602082840312156123b1576123b0611dba565b5b60006123bf84828501612386565b91505092915050565b7f496e73756666696369656e74207472656173757279206c697175696469747900600082015250565b60006123fe601f836121e6565b9150612409826123c8565b602082019050919050565b6000602082019050818103600083015261242d816123f1565b9050919050565b7f536c69707061676520746f6f2068696768000000000000000000000000000000600082015250565b600061246a6011836121e6565b915061247582612434565b602082019050919050565b600060208201905081810360008301526124998161245d565b9050919050565b60006060820190506124b56000830186612075565b6124c26020830185612075565b6124cf604083018461204b565b949350505050565b7f5472616e73666572206661696c65640000000000000000000000000000000000600082015250565b600061250d600f836121e6565b9150612518826124d7565b602082019050919050565b6000602082019050818103600083015261253c81612500565b9050919050565b82818337600083830152505050565b6000601f19601f8301169050919050565b600061256f83856121e6565b935061257c838584612543565b61258583612552565b840190509392505050565b600060808201905081810360008301526125ab81888a612563565b905081810360208301526125c0818688612563565b90506125cf604083018561204b565b6125dc606083018461204b565b979650505050505050565b7f424c4f434b454420524f5554453a20537461626c653c2d3e5741474552206e6f60008201527f7420616c6c6f7765640000000000000000000000000000000000000000000000602082015250565b60006126436029836121e6565b915061264e826125e7565b604082019050919050565b6000602082019050818103600083015261267281612636565b9050919050565b7f4d7573742073656e642048424152000000000000000000000000000000000000600082015250565b60006126af600e836121e6565b91506126ba82612679565b602082019050919050565b600060208201905081810360008301526126de816126a2565b9050919050565b7f556e737570706f72746564207377617020706174680000000000000000000000600082015250565b600061271b6015836121e6565b9150612726826126e5565b602082019050919050565b6000602082019050818103600083015261274a8161270e565b9050919050565b7f446f206e6f742073656e64204842415220666f7220746f6b656e2d3e4842415260008201527f2073776170730000000000000000000000000000000000000000000000000000602082015250565b60006127ad6026836121e6565b91506127b882612751565b604082019050919050565b600060208201905081810360008301526127dc816127a0565b9050919050565b7f556e737570706f7274656420746f6b656e000000000000000000000000000000600082015250565b60006128196011836121e6565b9150612824826127e3565b602082019050919050565b600060208201905081810360008301526128488161280c565b9050919050565b7f4e487b7100000000000000000000000000000000000000000000000000000000600052601160045260246000fd5b600061288982611e22565b915061289483611e22565b92508282026128a281611e22565b915082820484148315176128b9576128b861284f565b5b5092915050565b7f4e487b7100000000000000000000000000000000000000000000000000000000600052601260045260246000fd5b60006128fa82611e22565b915061290583611e22565b925082612915576129146128c0565b5b828204905092915050565b7f496e73756666696369656e7420747265617375727920737461626c65636f696e60008201527f206c697175696469747900000000000000000000000000000000000000000000602082015250565b600061297c602a836121e6565b915061298782612920565b604082019050919050565b600060208201905081810360008301526129ab8161296f565b9050919050565b600081519050919050565b60005b838110156129db5780820151818401526020810190506129c0565b60008484015250505050565b60006129f2826129b2565b6129fc81856121e6565b9350612a0c8185602086016129bd565b612a1581612552565b840191505092915050565b60006060820190508181036000830152612a3a81866129e7565b9050612a49602083018561204b565b612a56604083018461204b565b949350505050565b6000612a6982611e22565b9150612a7483611e22565b9250828203905081811115612a8c57612a8b61284f565b5b92915050565b7f506f6f6c2068617320696e73756666696369656e74206c697175696469747900600082015250565b6000612ac8601f836121e6565b9150612ad382612a92565b602082019050919050565b60006020820190508181036000830152612af781612abb565b9050919050565b6000612b0982611e22565b9150612b1483611e22565b9250828201905080821115612b2c57612b2b61284f565b5b92915050565b7f5741474552000000000000000000000000000000000000000000000000000000600082015250565b6000612b686005836121e6565b9150612b7382612b32565b602082019050919050565b60006060820190508181036000830152612b9781612b5b565b9050612ba6602083018561204b565b612bb3604083018461204b565b9392505050565b7f496e73756666696369656e742074726561737572792048424152206c6971756960008201527f6469747900000000000000000000000000000000000000000000000000000000602082015250565b6000612c166024836121e6565b9150612c2182612bba565b604082019050919050565b60006020820190508181036000830152612c4581612c09565b9050919050565b7f537461626c65636f696e207472616e73666572206661696c6564000000000000600082015250565b6000612c82601a836121e6565b9150612c8d82612c4c565b602082019050919050565b60006020820190508181036000830152612cb181612c75565b9050919050565b7f5741474552207472616e73666572206661696c65640000000000000000000000600082015250565b6000612cee6015836121e6565b9150612cf982612cb8565b602082019050919050565b60006020820190508181036000830152612d1d81612ce1565b905091905056fea26469706673582212202af1d548851ad33302bdbe52733653ee44aeee9d31f8ffce2acbc994f0551a8e64736f6c63430008140033",
  "linkReferences": {},
  "deployedLinkReferences": {}
}