{
  "_format": "hh-sol-artifact-1",
  "contractName": "HybridWagerSwapRouter",
  "sourceName": "contracts/HybridWagerSwapRouter.sol",
  "abi": [
    {
      "inputs": [
        {
          "internalType": "address",
          "name": "_wagerToken",
          "type": "address"
        },
        {
          "internalType": "address",
          "name": "_usdcToken",
          "type": "address"
        },
        {
          "internalType": "address",
          "name": "_usdtToken",
          "type": "address"
        },
        {
          "internalType": "uint256",
          "name": "_initialHbarUsdPrice",
          "type": "uint256"
        }
      ],
      "stateMutability": "nonpayable",
      "type": "constructor"
    },
    {
      "inputs": [
        {
          "internalType": "address",
          "name": "owner",
          "type": "address"
        }
      ],
      "name": "OwnableInvalidOwner",
      "type": "error"
    },
    {
      "inputs": [
        {
          "internalType": "address",
          "name": "account",
          "type": "address"
        }
      ],
      "name": "OwnableUnauthorizedAccount",
      "type": "error"
    },
    {
      "inputs": [],
      "name": "ReentrancyGuardReentrantCall",
      "type": "error"
    },
    {
      "anonymous": false,
      "inputs": [
        {
          "indexed": false,
          "internalType": "uint256",
          "name": "oldPrice",
          "type": "uint256"
        },
        {
          "indexed": false,
          "internalType": "uint256",
          "name": "newPrice",
          "type": "uint256"
        }
      ],
      "name": "HbarUsdPriceUpdated",
      "type": "event"
    },
    {
      "anonymous": false,
      "inputs": [
        {
          "indexed": true,
          "internalType": "address",
          "name": "previousOwner",
          "type": "address"
        },
        {
          "indexed": true,
          "internalType": "address",
          "name": "newOwner",
          "type": "address"
        }
      ],
      "name": "OwnershipTransferred",
      "type": "event"
    },
    {
      "anonymous": false,
      "inputs": [
        {
          "indexed": true,
          "internalType": "address",
          "name": "user",
          "type": "address"
        },
        {
          "indexed": false,
          "internalType": "string",
          "name": "tokenOut",
          "type": "string"
        },
        {
          "indexed": false,
          "internalType": "uint256",
          "name": "hbarIn",
          "type": "uint256"
        },
        {
          "indexed": false,
          "internalType": "uint256",
          "name": "tokenOut_amount",
          "type": "uint256"
        }
      ],
      "name": "SwapHbarForToken",
      "type": "event"
    },
    {
      "anonymous": false,
      "inputs": [
        {
          "indexed": true,
          "internalType": "address",
          "name": "user",
          "type": "address"
        },
        {
          "indexed": false,
          "internalType": "string",
          "name": "tokenIn",
          "type": "string"
        },
        {
          "indexed": false,
          "internalType": "uint256",
          "name": "tokenIn_amount",
          "type": "uint256"
        },
        {
          "indexed": false,
          "internalType": "uint256",
          "name": "hbarOut",
          "type": "uint256"
        }
      ],
      "name": "SwapTokenForHbar",
      "type": "event"
    },
    {
      "anonymous": false,
      "inputs": [
        {
          "indexed": true,
          "internalType": "address",
          "name": "user",
          "type": "address"
        },
        {
          "indexed": false,
          "internalType": "string",
          "name": "tokenIn",
          "type": "string"
        },
        {
          "indexed": false,
          "internalType": "string",
          "name": "tokenOut",
          "type": "string"
        },
        {
          "indexed": false,
          "internalType": "uint256",
          "name": "amountIn",
          "type": "uint256"
        },
        {
          "indexed": false,
          "internalType": "uint256",
          "name": "amountOut",
          "type": "uint256"
        }
      ],
      "name": "SwapTokenForToken",
      "type": "event"
    },
    {
      "inputs": [],
      "name": "hbarUsdPrice",
      "outputs": [
        {
          "internalType": "uint256",
          "name": "",
          "type": "uint256"
        }
      ],
      "stateMutability": "view",
      "type": "function"
    },
    {
      "inputs": [],
      "name": "owner",
      "outputs": [
        {
          "internalType": "address",
          "name": "",
          "type": "address"
        }
      ],
      "stateMutability": "view",
      "type": "function"
    },
    {
      "inputs": [],
      "name": "renounceOwnership",
      "outputs": [],
      "stateMutability": "nonpayable",
      "type": "function"
    },
    {
      "inputs": [
        {
          "internalType": "uint256",
          "name": "newPrice",
          "type": "uint256"
        }
      ],
      "name": "setHbarUsdPrice",
      "outputs": [],
      "stateMutability": "nonpayable",
      "type": "function"
    },
    {
      "inputs": [
        {
          "internalType": "string",
          "name": "tokenOutSymbol",
          "type": "string"
        },
        {
          "internalType": "uint256",
          "name": "minAmountOut",
          "type": "uint256"
        }
      ],
      "name": "swapHbarForToken",
      "outputs": [],
      "stateMutability": "payable",
      "type": "function"
    },
    {
      "inputs": [
        {
          "internalType": "string",
          "name": "tokenInSymbol",
          "type": "string"
        },
        {
          "internalType": "uint256",
          "name": "amountIn",
          "type": "uint256"
        },
        {
          "internalType": "uint256",
          "name": "minAmountOut",
          "type": "uint256"
        }
      ],
      "name": "swapTokenForHbar",
      "outputs": [],
      "stateMutability": "payable",
      "type": "function"
    },
    {
      "inputs": [
        {
          "internalType": "string",
          "name": "tokenInSymbol",
          "type": "string"
        },
        {
          "internalType": "string",
          "name": "tokenOutSymbol",
          "type": "string"
        },
        {
          "internalType": "uint256",
          "name": "amountIn",
          "type": "uint256"
        },
        {
          "internalType": "uint256",
          "name": "minAmountOut",
          "type": "uint256"
        }
      ],
      "name": "swapTokenForToken",
      "outputs": [],
      "stateMutability": "nonpayable",
      "type": "function"
    },
    {
      "inputs": [
        {
          "internalType": "address",
          "name": "newOwner",
          "type": "address"
        }
      ],
      "name": "transferOwnership",
      "outputs": [],
      "stateMutability": "nonpayable",
      "type": "function"
    },
    {
      "inputs": [],
      "name": "usdcToken",
      "outputs": [
        {
          "internalType": "contract IERC20",
          "name": "",
          "type": "address"
        }
      ],
      "stateMutability": "view",
      "type": "function"
    },
    {
      "inputs": [],
      "name": "usdtToken",
      "outputs": [
        {
          "internalType": "contract IERC20",
          "name": "",
          "type": "address"
        }
      ],
      "stateMutability": "view",
      "type": "function"
    },
    {
      "inputs": [],
      "name": "wagerToken",
      "outputs": [
        {
          "internalType": "contract IERC20",
          "name": "",
          "type": "address"
        }
      ],
      "stateMutability": "view",
      "type": "function"
    },
    {
      "inputs": [
        {
          "internalType": "address",
          "name": "tokenAddress",
          "type": "address"
        },
        {
          "internalType": "uint256",
          "name": "amount",
          "type": "uint256"
        }
      ],
      "name": "withdrawLiquidity",
      "outputs": [],
      "stateMutability": "nonpayable",
      "type": "function"
    },
    {
      "stateMutability": "payable",
      "type": "receive"
    }
  ],
  "bytecode": "0x60806040523480156200001157600080fd5b506040516200316c3803806200316c83398181016040528101906200003791906200035a565b33600073ffffffffffffffffffffffffffffffffffffffff168173ffffffffffffffffffffffffffffffffffffffff1603620000ad5760006040517f1e4fbdf7000000000000000000000000000000000000000000000000000000008152600401620000a49190620003dd565b60405180910390fd5b620000be81620001bc60201b60201c565b506001620000e1620000d56200028060201b60201c565b620002ab60201b60201c565b6000018190555083600160006101000a81548173ffffffffffffffffffffffffffffffffffffffff021916908373ffffffffffffffffffffffffffffffffffffffff16021790555082600260006101000a81548173ffffffffffffffffffffffffffffffffffffffff021916908373ffffffffffffffffffffffffffffffffffffffff16021790555081600360006101000a81548173ffffffffffffffffffffffffffffffffffffffff021916908373ffffffffffffffffffffffffffffffffffffffff1602179055508060048190555050505050620003fa565b60008060009054906101000a900473ffffffffffffffffffffffffffffffffffffffff169050816000806101000a81548173ffffffffffffffffffffffffffffffffffffffff021916908373ffffffffffffffffffffffffffffffffffffffff1602179055508173ffffffffffffffffffffffffffffffffffffffff168173ffffffffffffffffffffffffffffffffffffffff167f8be0079c531659141344cd1fd0a4f28419497f9722a3daafe3b4186f6b6457e060405160405180910390a35050565b60007f9b779b17422d0df92223018b32b4d1fa46e071723d6817e2486d003becc55f0060001b905090565b6000819050919050565b600080fd5b600073ffffffffffffffffffffffffffffffffffffffff82169050919050565b6000620002e782620002ba565b9050919050565b620002f981620002da565b81146200030557600080fd5b50565b6000815190506200031981620002ee565b92915050565b6000819050919050565b62000334816200031f565b81146200034057600080fd5b50565b600081519050620003548162000329565b92915050565b60008060008060808587031215620003775762000376620002b5565b5b6000620003878782880162000308565b94505060206200039a8782880162000308565b9350506040620003ad8782880162000308565b9250506060620003c08782880162000343565b91505092959194509250565b620003d781620002da565b82525050565b6000602082019050620003f46000830184620003cc565b92915050565b612d62806200040a6000396000f3fe6080604052600436106100ab5760003560e01c80638da5cb5b116100645780638da5cb5b1461019f578063a98ad46c146101ca578063adad3685146101f5578063b32fa4fc14610220578063d2e639401461023c578063f2fde38b14610258576100b2565b806306d47de9146100b757806311e1a2f5146100e057806311eac85514610109578063715018a6146101345780637b4d916b1461014b5780637b868e9814610174576100b2565b366100b257005b600080fd5b3480156100c357600080fd5b506100de60048036038101906100d99190611e60565b610281565b005b3480156100ec57600080fd5b5061010760048036038101906101029190611ea0565b610401565b005b34801561011557600080fd5b5061011e610491565b60405161012b9190611f2c565b60405180910390f35b34801561014057600080fd5b506101496104b7565b005b34801561015757600080fd5b50610172600480360381019061016d9190611fac565b6104cb565b005b34801561018057600080fd5b506101896109f9565b6040516101969190612062565b60405180910390f35b3480156101ab57600080fd5b506101b46109ff565b6040516101c1919061208c565b60405180910390f35b3480156101d657600080fd5b506101df610a28565b6040516101ec9190611f2c565b60405180910390f35b34801561020157600080fd5b5061020a610a4e565b6040516102179190611f2c565b60405180910390f35b61023a600480360381019061023591906120a7565b610a74565b005b61025660048036038101906102519190612107565b610cc3565b005b34801561026457600080fd5b5061027f600480360381019061027a919061217b565b610f13565b005b610289610f99565b600073ffffffffffffffffffffffffffffffffffffffff168273ffffffffffffffffffffffffffffffffffffffff16036103765760006102c76109ff565b73ffffffffffffffffffffffffffffffffffffffff16826040516102ea906121d9565b60006040518083038185875af1925050503d8060008114610327576040519150601f19603f3d011682016040523d82523d6000602084013e61032c565b606091505b5050905080610370576040517f08c379a00000000000000000000000000000000000000000000000000000000081526004016103679061224b565b60405180910390fd5b506103fd565b8173ffffffffffffffffffffffffffffffffffffffff1663a9059cbb61039a6109ff565b836040518363ffffffff1660e01b81526004016103b892919061226b565b6020604051808303816000875af11580156103d7573d6000803e3d6000fd5b505050506040513d601f19601f820116820180604052508101906103fb91906122cc565b505b5050565b610409610f99565b6000811161044c576040517f08c379a000000000000000000000000000000000000000000000000000000000815260040161044390612345565b60405180910390fd5b7f700fee6a250299ced1754b363195c30a890640f2797d4b350cf2f9fa70a77b076004548260405161047f929190612365565b60405180910390a18060048190555050565b600260009054906101000a900473ffffffffffffffffffffffffffffffffffffffff1681565b6104bf610f99565b6104c96000611020565b565b6104d36110e4565b600061052287878080601f016020809104026020016040519081016040528093929190818152602001838380828437600081840152601f19601f82011690508083019250505050505050611107565b9050600061057386868080601f016020809104026020016040519081016040528093929190818152602001838380828437600081840152601f19601f82011690508083019250505050505050611107565b9050600260009054906101000a900473ffffffffffffffffffffffffffffffffffffffff1673ffffffffffffffffffffffffffffffffffffffff168273ffffffffffffffffffffffffffffffffffffffff16148061061e5750600360009054906101000a900473ffffffffffffffffffffffffffffffffffffffff1673ffffffffffffffffffffffffffffffffffffffff168273ffffffffffffffffffffffffffffffffffffffff16145b80156106cf5750600260009054906101000a900473ffffffffffffffffffffffffffffffffffffffff1673ffffffffffffffffffffffffffffffffffffffff168173ffffffffffffffffffffffffffffffffffffffff1614806106ce5750600360009054906101000a900473ffffffffffffffffffffffffffffffffffffffff1673ffffffffffffffffffffffffffffffffffffffff168173ffffffffffffffffffffffffffffffffffffffff16145b5b156109ac57838173ffffffffffffffffffffffffffffffffffffffff166370a08231306040518263ffffffff1660e01b815260040161070e919061208c565b602060405180830381865afa15801561072b573d6000803e3d6000fd5b505050506040513d601f19601f8201168201806040525081019061074f91906123a3565b1015610790576040517f08c379a00000000000000000000000000000000000000000000000000000000081526004016107879061241c565b60405180910390fd5b828410156107d3576040517f08c379a00000000000000000000000000000000000000000000000000000000081526004016107ca90612488565b60405180910390fd5b8173ffffffffffffffffffffffffffffffffffffffff166323b872dd3330876040518463ffffffff1660e01b8152600401610810939291906124a8565b6020604051808303816000875af115801561082f573d6000803e3d6000fd5b505050506040513d601f19601f8201168201806040525081019061085391906122cc565b610892576040517f08c379a00000000000000000000000000000000000000000000000000000000081526004016108899061252b565b60405180910390fd5b8073ffffffffffffffffffffffffffffffffffffffff1663a9059cbb33866040518363ffffffff1660e01b81526004016108cd92919061226b565b6020604051808303816000875af11580156108ec573d6000803e3d6000fd5b505050506040513d601f19601f8201168201806040525081019061091091906122cc565b61094f576040517f08c379a00000000000000000000000000000000000000000000000000000000081526004016109469061252b565b60405180910390fd5b3373ffffffffffffffffffffffffffffffffffffffff167ff1d8f6f2110f1b36d4d6a72c57541a6d5bbcf53632050a7a8c8ead3750c765c189898989898a60405161099f96959493929190612598565b60405180910390a26109e7565b6040517f08c379a00000000000000000000000000000000000000000000000000000000081526004016109de90612661565b60405180910390fd5b50506109f16112e5565b505050505050565b60045481565b60008060009054906101000a900473ffffffffffffffffffffffffffffffffffffffff16905090565b600360009054906101000a900473ffffffffffffffffffffffffffffffffffffffff1681565b600160009054906101000a900473ffffffffffffffffffffffffffffffffffffffff1681565b610a7c6110e4565b60003411610abf576040517f08c379a0000000000000000000000000000000000000000000000000000000008152600401610ab6906126cd565b60405180910390fd5b6000610b0e84848080601f016020809104026020016040519081016040528093929190818152602001838380828437600081840152601f19601f82011690508083019250505050505050611107565b9050600260009054906101000a900473ffffffffffffffffffffffffffffffffffffffff1673ffffffffffffffffffffffffffffffffffffffff168173ffffffffffffffffffffffffffffffffffffffff161480610bb95750600360009054906101000a900473ffffffffffffffffffffffffffffffffffffffff1673ffffffffffffffffffffffffffffffffffffffff168173ffffffffffffffffffffffffffffffffffffffff16145b15610c1457610c0e8185858080601f016020809104026020016040519081016040528093929190818152602001838380828437600081840152601f19601f820116905080830192505050505050503485611300565b50610cb5565b600160009054906101000a900473ffffffffffffffffffffffffffffffffffffffff1673ffffffffffffffffffffffffffffffffffffffff168173ffffffffffffffffffffffffffffffffffffffff1603610c7957610c733483611502565b50610cb4565b6040517f08c379a0000000000000000000000000000000000000000000000000000000008152600401610cab90612739565b60405180910390fd5b5b50610cbe6112e5565b505050565b610ccb6110e4565b60003414610d0e576040517f08c379a0000000000000000000000000000000000000000000000000000000008152600401610d05906127cb565b60405180910390fd5b6000610d5d85858080601f016020809104026020016040519081016040528093929190818152602001838380828437600081840152601f19601f82011690508083019250505050505050611107565b9050600260009054906101000a900473ffffffffffffffffffffffffffffffffffffffff1673ffffffffffffffffffffffffffffffffffffffff168173ffffffffffffffffffffffffffffffffffffffff161480610e085750600360009054906101000a900473ffffffffffffffffffffffffffffffffffffffff1673ffffffffffffffffffffffffffffffffffffffff168173ffffffffffffffffffffffffffffffffffffffff16145b15610e6357610e5d8186868080601f016020809104026020016040519081016040528093929190818152602001838380828437600081840152601f19601f820116905080830192505050505050508585611768565b50610f04565b600160009054906101000a900473ffffffffffffffffffffffffffffffffffffffff1673ffffffffffffffffffffffffffffffffffffffff168173ffffffffffffffffffffffffffffffffffffffff1603610ec857610ec283836119de565b50610f03565b6040517f08c379a0000000000000000000000000000000000000000000000000000000008152600401610efa90612739565b60405180910390fd5b5b50610f0d6112e5565b50505050565b610f1b610f99565b600073ffffffffffffffffffffffffffffffffffffffff168173ffffffffffffffffffffffffffffffffffffffff1603610f8d5760006040517f1e4fbdf7000000000000000000000000000000000000000000000000000000008152600401610f84919061208c565b60405180910390fd5b610f9681611020565b50565b610fa1611d26565b73ffffffffffffffffffffffffffffffffffffffff16610fbf6109ff565b73ffffffffffffffffffffffffffffffffffffffff161461101e57610fe2611d26565b6040517f118cdaa7000000000000000000000000000000000000000000000000000000008152600401611015919061208c565b60405180910390fd5b565b60008060009054906101000a900473ffffffffffffffffffffffffffffffffffffffff169050816000806101000a81548173ffffffffffffffffffffffffffffffffffffffff021916908373ffffffffffffffffffffffffffffffffffffffff1602179055508173ffffffffffffffffffffffffffffffffffffffff168173ffffffffffffffffffffffffffffffffffffffff167f8be0079c531659141344cd1fd0a4f28419497f9722a3daafe3b4186f6b6457e060405160405180910390a35050565b6110ec611d2e565b60026110fe6110f9611d6f565b611d9a565b60000181905550565b600080828051906020012090506040518060400160405280600681526020017f24574147455200000000000000000000000000000000000000000000000000008152508051906020012081148061119957506040518060400160405280600581526020017f57414745520000000000000000000000000000000000000000000000000000008152508051906020012081145b156111c957600160009054906101000a900473ffffffffffffffffffffffffffffffffffffffff169150506112e0565b6040518060400160405280600481526020017f555344430000000000000000000000000000000000000000000000000000000081525080519060200120810361123757600260009054906101000a900473ffffffffffffffffffffffffffffffffffffffff169150506112e0565b6040518060400160405280600481526020017f55534454000000000000000000000000000000000000000000000000000000008152508051906020012081036112a557600360009054906101000a900473ffffffffffffffffffffffffffffffffffffffff169150506112e0565b6040517f08c379a00000000000000000000000000000000000000000000000000000000081526004016112d790612837565b60405180910390fd5b919050565b60016112f76112f2611d6f565b611d9a565b60000181905550565b600080670de0b6b3a76400006004548561131a9190612886565b61132491906128f7565b905082811015611369576040517f08c379a000000000000000000000000000000000000000000000000000000000815260040161136090612488565b60405180910390fd5b808673ffffffffffffffffffffffffffffffffffffffff166370a08231306040518263ffffffff1660e01b81526004016113a3919061208c565b602060405180830381865afa1580156113c0573d6000803e3d6000fd5b505050506040513d601f19601f820116820180604052508101906113e491906123a3565b1015611425576040517f08c379a000000000000000000000000000000000000000000000000000000000815260040161141c9061299a565b60405180910390fd5b8573ffffffffffffffffffffffffffffffffffffffff1663a9059cbb33836040518363ffffffff1660e01b815260040161146092919061226b565b6020604051808303816000875af115801561147f573d6000803e3d6000fd5b505050506040513d601f19601f820116820180604052508101906114a391906122cc565b503373ffffffffffffffffffffffffffffffffffffffff167f74b662977a65959342036661caf67bf7e607f2f2845ffb0c458e32ba2f1b658f8686846040516114ee93929190612a28565b60405180910390a280915050949350505050565b60008083476115119190612a66565b90506000600160009054906101000a900473ffffffffffffffffffffffffffffffffffffffff1673ffffffffffffffffffffffffffffffffffffffff166370a08231306040518263ffffffff1660e01b8152600401611570919061208c565b602060405180830381865afa15801561158d573d6000803e3d6000fd5b505050506040513d601f19601f820116820180604052508101906115b191906123a3565b90506000821180156115c35750600081115b611602576040517f08c379a00000000000000000000000000000000000000000000000000000000081526004016115f990612ae6565b60405180910390fd5b600085836116109190612b06565b868361161c9190612886565b61162691906128f7565b90508481101561166b576040517f08c379a000000000000000000000000000000000000000000000000000000000815260040161166290612488565b60405180910390fd5b600160009054906101000a900473ffffffffffffffffffffffffffffffffffffffff1673ffffffffffffffffffffffffffffffffffffffff1663a9059cbb33836040518363ffffffff1660e01b81526004016116c892919061226b565b6020604051808303816000875af11580156116e7573d6000803e3d6000fd5b505050506040513d601f19601f8201168201806040525081019061170b91906122cc565b503373ffffffffffffffffffffffffffffffffffffffff167f74b662977a65959342036661caf67bf7e607f2f2845ffb0c458e32ba2f1b658f8783604051611754929190612b86565b60405180910390a280935050505092915050565b600080600454670de0b6b3a7640000856117829190612886565b61178c91906128f7565b9050828110156117d1576040517f08c379a00000000000000000000000000000000000000000000000000000000081526004016117c890612488565b60405180910390fd5b80471015611814576040517f08c379a000000000000000000000000000000000000000000000000000000000815260040161180b90612c34565b60405180910390fd5b8573ffffffffffffffffffffffffffffffffffffffff166323b872dd3330876040518463ffffffff1660e01b8152600401611851939291906124a8565b6020604051808303816000875af1158015611870573d6000803e3d6000fd5b505050506040513d601f19601f8201168201806040525081019061189491906122cc565b6118d3576040517f08c379a00000000000000000000000000000000000000000000000000000000081526004016118ca90612ca0565b60405180910390fd5b60003373ffffffffffffffffffffffffffffffffffffffff16826040516118f9906121d9565b60006040518083038185875af1925050503d8060008114611936576040519150601f19603f3d011682016040523d82523d6000602084013e61193b565b606091505b505090508061197f576040517f08c379a00000000000000000000000000000000000000000000000000000000081526004016119769061224b565b60405180910390fd5b3373ffffffffffffffffffffffffffffffffffffffff167fe3de324b3cb785302de9395062e9f223baf7b6ab98ad5f2a5faaec2780d68e1d8787856040516119c993929190612a28565b60405180910390a28192505050949350505050565b600080600160009054906101000a900473ffffffffffffffffffffffffffffffffffffffff1673ffffffffffffffffffffffffffffffffffffffff166370a08231306040518263ffffffff1660e01b8152600401611a3c919061208c565b602060405180830381865afa158015611a59573d6000803e3d6000fd5b505050506040513d601f19601f82011682018060405250810190611a7d91906123a3565b90506000479050600082118015611a945750600081115b611ad3576040517f08c379a0000000000000000000000000000000000000000000000000000000008152600401611aca90612ae6565b60405180910390fd5b60008583611ae19190612b06565b8683611aed9190612886565b611af791906128f7565b905084811015611b3c576040517f08c379a0000000000000000000000000000000000000000000000000000000008152600401611b3390612488565b60405180910390fd5b600160009054906101000a900473ffffffffffffffffffffffffffffffffffffffff1673ffffffffffffffffffffffffffffffffffffffff166323b872dd3330896040518463ffffffff1660e01b8152600401611b9b939291906124a8565b6020604051808303816000875af1158015611bba573d6000803e3d6000fd5b505050506040513d601f19601f82011682018060405250810190611bde91906122cc565b611c1d576040517f08c379a0000000000000000000000000000000000000000000000000000000008152600401611c1490612d0c565b60405180910390fd5b60003373ffffffffffffffffffffffffffffffffffffffff1682604051611c43906121d9565b60006040518083038185875af1925050503d8060008114611c80576040519150601f19603f3d011682016040523d82523d6000602084013e611c85565b606091505b5050905080611cc9576040517f08c379a0000000000000000000000000000000000000000000000000000000008152600401611cc09061224b565b60405180910390fd5b3373ffffffffffffffffffffffffffffffffffffffff167fe3de324b3cb785302de9395062e9f223baf7b6ab98ad5f2a5faaec2780d68e1d8884604051611d11929190612b86565b60405180910390a28194505050505092915050565b600033905090565b611d36611da4565b15611d6d576040517f3ee5aeb500000000000000000000000000000000000000000000000000000000815260040160405180910390fd5b565b60007f9b779b17422d0df92223018b32b4d1fa46e071723d6817e2486d003becc55f0060001b905090565b6000819050919050565b60006002611db8611db3611d6f565b611d9a565b6000015414905090565b600080fd5b600080fd5b600073ffffffffffffffffffffffffffffffffffffffff82169050919050565b6000611df782611dcc565b9050919050565b611e0781611dec565b8114611e1257600080fd5b50565b600081359050611e2481611dfe565b92915050565b6000819050919050565b611e3d81611e2a565b8114611e4857600080fd5b50565b600081359050611e5a81611e34565b92915050565b60008060408385031215611e7757611e76611dc2565b5b6000611e8585828601611e15565b9250506020611e9685828601611e4b565b9150509250929050565b600060208284031215611eb657611eb5611dc2565b5b6000611ec484828501611e4b565b91505092915050565b6000819050919050565b6000611ef2611eed611ee884611dcc565b611ecd565b611dcc565b9050919050565b6000611f0482611ed7565b9050919050565b6000611f1682611ef9565b9050919050565b611f2681611f0b565b82525050565b6000602082019050611f416000830184611f1d565b92915050565b600080fd5b600080fd5b600080fd5b60008083601f840112611f6c57611f6b611f47565b5b8235905067ffffffffffffffff811115611f8957611f88611f4c565b5b602083019150836001820283011115611fa557611fa4611f51565b5b9250929050565b60008060008060008060808789031215611fc957611fc8611dc2565b5b600087013567ffffffffffffffff811115611fe757611fe6611dc7565b5b611ff389828a01611f56565b9650965050602087013567ffffffffffffffff81111561201657612015611dc7565b5b61202289828a01611f56565b9450945050604061203589828a01611e4b565b925050606061204689828a01611e4b565b9150509295509295509295565b61205c81611e2a565b82525050565b60006020820190506120776000830184612053565b92915050565b61208681611dec565b82525050565b60006020820190506120a1600083018461207d565b92915050565b6000806000604084860312156120c0576120bf611dc2565b5b600084013567ffffffffffffffff8111156120de576120dd611dc7565b5b6120ea86828701611f56565b935093505060206120fd86828701611e4b565b9150509250925092565b6000806000806060858703121561212157612120611dc2565b5b600085013567ffffffffffffffff81111561213f5761213e611dc7565b5b61214b87828801611f56565b9450945050602061215e87828801611e4b565b925050604061216f87828801611e4b565b91505092959194509250565b60006020828403121561219157612190611dc2565b5b600061219f84828501611e15565b91505092915050565b600081905092915050565b50565b60006121c36000836121a8565b91506121ce826121b3565b600082019050919050565b60006121e4826121b6565b9150819050919050565b600082825260208201905092915050565b7f48424152207472616e73666572206661696c6564000000000000000000000000600082015250565b60006122356014836121ee565b9150612240826121ff565b602082019050919050565b6000602082019050818103600083015261226481612228565b9050919050565b6000604082019050612280600083018561207d565b61228d6020830184612053565b9392505050565b60008115159050919050565b6122a981612294565b81146122b457600080fd5b50565b6000815190506122c6816122a0565b92915050565b6000602082840312156122e2576122e1611dc2565b5b60006122f0848285016122b7565b91505092915050565b7f5072696365206d757374206265203e2030000000000000000000000000000000600082015250565b600061232f6011836121ee565b915061233a826122f9565b602082019050919050565b6000602082019050818103600083015261235e81612322565b9050919050565b600060408201905061237a6000830185612053565b6123876020830184612053565b9392505050565b60008151905061239d81611e34565b92915050565b6000602082840312156123b9576123b8611dc2565b5b60006123c78482850161238e565b91505092915050565b7f496e73756666696369656e74207472656173757279206c697175696469747900600082015250565b6000612406601f836121ee565b9150612411826123d0565b602082019050919050565b60006020820190508181036000830152612435816123f9565b9050919050565b7f536c69707061676520746f6f2068696768000000000000000000000000000000600082015250565b60006124726011836121ee565b915061247d8261243c565b602082019050919050565b600060208201905081810360008301526124a181612465565b9050919050565b60006060820190506124bd600083018661207d565b6124ca602083018561207d565b6124d76040830184612053565b949350505050565b7f5472616e73666572206661696c65640000000000000000000000000000000000600082015250565b6000612515600f836121ee565b9150612520826124df565b602082019050919050565b6000602082019050818103600083015261254481612508565b9050919050565b82818337600083830152505050565b6000601f19601f8301169050919050565b600061257783856121ee565b935061258483858461254b565b61258d8361255a565b840190509392505050565b600060808201905081810360008301526125b381888a61256b565b905081810360208301526125c881868861256b565b90506125d76040830185612053565b6125e46060830184612053565b979650505050505050565b7f424c4f434b454420524f5554453a20537461626c653c2d3e5741474552206e6f60008201527f7420616c6c6f7765640000000000000000000000000000000000000000000000602082015250565b600061264b6029836121ee565b9150612656826125ef565b604082019050919050565b6000602082019050818103600083015261267a8161263e565b9050919050565b7f4d7573742073656e642048424152000000000000000000000000000000000000600082015250565b60006126b7600e836121ee565b91506126c282612681565b602082019050919050565b600060208201905081810360008301526126e6816126aa565b9050919050565b7f556e737570706f72746564207377617020706174680000000000000000000000600082015250565b60006127236015836121ee565b915061272e826126ed565b602082019050919050565b6000602082019050818103600083015261275281612716565b9050919050565b7f446f206e6f742073656e64204842415220666f7220746f6b656e2d3e4842415260008201527f2073776170730000000000000000000000000000000000000000000000000000602082015250565b60006127b56026836121ee565b91506127c082612759565b604082019050919050565b600060208201905081810360008301526127e4816127a8565b9050919050565b7f556e737570706f7274656420746f6b656e000000000000000000000000000000600082015250565b60006128216011836121ee565b915061282c826127eb565b602082019050919050565b6000602082019050818103600083015261285081612814565b9050919050565b7f4e487b7100000000000000000000000000000000000000000000000000000000600052601160045260246000fd5b600061289182611e2a565b915061289c83611e2a565b92508282026128aa81611e2a565b915082820484148315176128c1576128c0612857565b5b5092915050565b7f4e487b7100000000000000000000000000000000000000000000000000000000600052601260045260246000fd5b600061290282611e2a565b915061290d83611e2a565b92508261291d5761291c6128c8565b5b828204905092915050565b7f496e73756666696369656e7420747265617375727920737461626c65636f696e60008201527f206c697175696469747900000000000000000000000000000000000000000000602082015250565b6000612984602a836121ee565b915061298f82612928565b604082019050919050565b600060208201905081810360008301526129b381612977565b9050919050565b600081519050919050565b60005b838110156129e35780820151818401526020810190506129c8565b60008484015250505050565b60006129fa826129ba565b612a0481856121ee565b9350612a148185602086016129c5565b612a1d8161255a565b840191505092915050565b60006060820190508181036000830152612a4281866129ef565b9050612a516020830185612053565b612a5e6040830184612053565b949350505050565b6000612a7182611e2a565b9150612a7c83611e2a565b9250828203905081811115612a9457612a93612857565b5b92915050565b7f506f6f6c2068617320696e73756666696369656e74206c697175696469747900600082015250565b6000612ad0601f836121ee565b9150612adb82612a9a565b602082019050919050565b60006020820190508181036000830152612aff81612ac3565b9050919050565b6000612b1182611e2a565b9150612b1c83611e2a565b9250828201905080821115612b3457612b33612857565b5b92915050565b7f5741474552000000000000000000000000000000000000000000000000000000600082015250565b6000612b706005836121ee565b9150612b7b82612b3a565b602082019050919050565b60006060820190508181036000830152612b9f81612b63565b9050612bae6020830185612053565b612bbb6040830184612053565b9392505050565b7f496e73756666696369656e742074726561737572792048424152206c6971756960008201527f6469747900000000000000000000000000000000000000000000000000000000602082015250565b6000612c1e6024836121ee565b9150612c2982612bc2565b604082019050919050565b60006020820190508181036000830152612c4d81612c11565b9050919050565b7f537461626c65636f696e207472616e73666572206661696c6564000000000000600082015250565b6000612c8a601a836121ee565b9150612c9582612c54565b602082019050919050565b60006020820190508181036000830152612cb981612c7d565b9050919050565b7f5741474552207472616e73666572206661696c65640000000000000000000000600082015250565b6000612cf66015836121ee565b9150612d0182612cc0565b602082019050919050565b60006020820190508181036000830152612d2581612ce9565b905091905056fea2646970667358221220a9b99940f548b05075a84e7e1b7da3fd3554dd9704bcbefdd78c1334928034a364736f6c63430008140033",
  "linkReferences": {},
  "deployedLinkReferences": {}
}