{
  "_format": "hh-sol-artifact-1",
  "contractName": "WagerSwapPool",
  "sourceName": "contracts/WagerSwapPool.sol",
  "abi": [
    {
      "inputs": [
        {
          "internalType": "address",
          "name": "_wagerToken",
          "type": "address"
        },
        {
          "internalType": "address",
          "name": "_usdcToken",
          "type": "address"
        },
        {
          "internalType": "address",
          "name": "_usdtToken",
          "type": "address"
        }
      ],
      "stateMutability": "nonpayable",
      "type": "constructor"
    },
    {
      "inputs": [
        {
          "internalType": "address",
          "name": "owner",
          "type": "address"
        }
      ],
      "name": "OwnableInvalidOwner",
      "type": "error"
    },
    {
      "inputs": [
        {
          "internalType": "address",
          "name": "account",
          "type": "address"
        }
      ],
      "name": "OwnableUnauthorizedAccount",
      "type": "error"
    },
    {
      "inputs": [
        {
          "internalType": "address",
          "name": "token",
          "type": "address"
        }
      ],
      "name": "SafeERC20FailedOperation",
      "type": "error"
    },
    {
      "anonymous": false,
      "inputs": [
        {
          "indexed": true,
          "internalType": "address",
          "name": "previousOwner",
          "type": "address"
        },
        {
          "indexed": true,
          "internalType": "address",
          "name": "newOwner",
          "type": "address"
        }
      ],
      "name": "OwnershipTransferred",
      "type": "event"
    },
    {
      "anonymous": false,
      "inputs": [
        {
          "indexed": true,
          "internalType": "address",
          "name": "user",
          "type": "address"
        },
        {
          "indexed": false,
          "internalType": "string",
          "name": "tokenIn",
          "type": "string"
        },
        {
          "indexed": false,
          "internalType": "string",
          "name": "tokenOut",
          "type": "string"
        },
        {
          "indexed": false,
          "internalType": "uint256",
          "name": "amountIn",
          "type": "uint256"
        },
        {
          "indexed": false,
          "internalType": "uint256",
          "name": "amountOut",
          "type": "uint256"
        }
      ],
      "name": "Swap",
      "type": "event"
    },
    {
      "inputs": [],
      "name": "owner",
      "outputs": [
        {
          "internalType": "address",
          "name": "",
          "type": "address"
        }
      ],
      "stateMutability": "view",
      "type": "function"
    },
    {
      "inputs": [],
      "name": "renounceOwnership",
      "outputs": [],
      "stateMutability": "nonpayable",
      "type": "function"
    },
    {
      "inputs": [
        {
          "internalType": "string",
          "name": "tokenOut",
          "type": "string"
        },
        {
          "internalType": "uint256",
          "name": "minAmountOut",
          "type": "uint256"
        }
      ],
      "name": "swapHbarForToken",
      "outputs": [],
      "stateMutability": "payable",
      "type": "function"
    },
    {
      "inputs": [
        {
          "internalType": "uint256",
          "name": "minAmountOut",
          "type": "uint256"
        }
      ],
      "name": "swapHbarForWager",
      "outputs": [],
      "stateMutability": "payable",
      "type": "function"
    },
    {
      "inputs": [
        {
          "internalType": "string",
          "name": "tokenIn",
          "type": "string"
        },
        {
          "internalType": "uint256",
          "name": "amountIn",
          "type": "uint256"
        },
        {
          "internalType": "uint256",
          "name": "minAmountOut",
          "type": "uint256"
        }
      ],
      "name": "swapTokenForHbar",
      "outputs": [],
      "stateMutability": "nonpayable",
      "type": "function"
    },
    {
      "inputs": [
        {
          "internalType": "string",
          "name": "tokenIn",
          "type": "string"
        },
        {
          "internalType": "string",
          "name": "tokenOut",
          "type": "string"
        },
        {
          "internalType": "uint256",
          "name": "amountIn",
          "type": "uint256"
        },
        {
          "internalType": "uint256",
          "name": "minAmountOut",
          "type": "uint256"
        }
      ],
      "name": "swapTokenForToken",
      "outputs": [],
      "stateMutability": "nonpayable",
      "type": "function"
    },
    {
      "inputs": [
        {
          "internalType": "uint256",
          "name": "amountIn",
          "type": "uint256"
        },
        {
          "internalType": "uint256",
          "name": "minAmountOut",
          "type": "uint256"
        }
      ],
      "name": "swapWagerForHbar",
      "outputs": [],
      "stateMutability": "nonpayable",
      "type": "function"
    },
    {
      "inputs": [
        {
          "internalType": "address",
          "name": "newOwner",
          "type": "address"
        }
      ],
      "name": "transferOwnership",
      "outputs": [],
      "stateMutability": "nonpayable",
      "type": "function"
    },
    {
      "inputs": [],
      "name": "usdcToken",
      "outputs": [
        {
          "internalType": "contract IERC20",
          "name": "",
          "type": "address"
        }
      ],
      "stateMutability": "view",
      "type": "function"
    },
    {
      "inputs": [],
      "name": "usdtToken",
      "outputs": [
        {
          "internalType": "contract IERC20",
          "name": "",
          "type": "address"
        }
      ],
      "stateMutability": "view",
      "type": "function"
    },
    {
      "inputs": [],
      "name": "wagerToken",
      "outputs": [
        {
          "internalType": "contract IERC20",
          "name": "",
          "type": "address"
        }
      ],
      "stateMutability": "view",
      "type": "function"
    },
    {
      "inputs": [
        {
          "internalType": "uint256",
          "name": "amount",
          "type": "uint256"
        }
      ],
      "name": "withdrawHbar",
      "outputs": [],
      "stateMutability": "nonpayable",
      "type": "function"
    },
    {
      "inputs": [
        {
          "internalType": "string",
          "name": "tokenSymbol",
          "type": "string"
        },
        {
          "internalType": "uint256",
          "name": "amount",
          "type": "uint256"
        }
      ],
      "name": "withdrawToken",
      "outputs": [],
      "stateMutability": "nonpayable",
      "type": "function"
    },
    {
      "stateMutability": "payable",
      "type": "receive"
    }
  ],
  "bytecode": "0x60806040523480156200001157600080fd5b506040516200245e3803806200245e8339818101604052810190620000379190620002b9565b33600073ffffffffffffffffffffffffffffffffffffffff168173ffffffffffffffffffffffffffffffffffffffff1603620000ad5760006040517f1e4fbdf7000000000000000000000000000000000000000000000000000000008152600401620000a4919062000326565b60405180910390fd5b620000be816200018b60201b60201c565b5082600160006101000a81548173ffffffffffffffffffffffffffffffffffffffff021916908373ffffffffffffffffffffffffffffffffffffffff16021790555081600260006101000a81548173ffffffffffffffffffffffffffffffffffffffff021916908373ffffffffffffffffffffffffffffffffffffffff16021790555080600360006101000a81548173ffffffffffffffffffffffffffffffffffffffff021916908373ffffffffffffffffffffffffffffffffffffffff16021790555050505062000343565b60008060009054906101000a900473ffffffffffffffffffffffffffffffffffffffff169050816000806101000a81548173ffffffffffffffffffffffffffffffffffffffff021916908373ffffffffffffffffffffffffffffffffffffffff1602179055508173ffffffffffffffffffffffffffffffffffffffff168173ffffffffffffffffffffffffffffffffffffffff167f8be0079c531659141344cd1fd0a4f28419497f9722a3daafe3b4186f6b6457e060405160405180910390a35050565b600080fd5b600073ffffffffffffffffffffffffffffffffffffffff82169050919050565b6000620002818262000254565b9050919050565b620002938162000274565b81146200029f57600080fd5b50565b600081519050620002b38162000288565b92915050565b600080600060608486031215620002d557620002d46200024f565b5b6000620002e586828701620002a2565b9350506020620002f886828701620002a2565b92505060406200030b86828701620002a2565b9150509250925092565b620003208162000274565b82525050565b60006020820190506200033d600083018462000315565b92915050565b61210b80620003536000396000f3fe6080604052600436106100c65760003560e01c80638da5cb5b1161007f578063b32fa4fc11610059578063b32fa4fc1461022c578063c97a413a14610248578063d2e6394014610271578063f2fde38b1461029a576100cd565b80638da5cb5b146101ab578063a98ad46c146101d6578063adad368514610201576100cd565b806311eac855146100d25780633156e18e146100fd5780635df16e0714610126578063715018a61461014257806376420f8f146101595780637b4d916b14610182576100cd565b366100cd57005b600080fd5b3480156100de57600080fd5b506100e76102c3565b6040516100f49190611761565b60405180910390f35b34801561010957600080fd5b50610124600480360381019061011f91906117bc565b6102e9565b005b610140600480360381019061013b91906117fc565b610576565b005b34801561014e57600080fd5b506101576107c4565b005b34801561016557600080fd5b50610180600480360381019061017b91906117fc565b6107d8565b005b34801561018e57600080fd5b506101a960048036038101906101a4919061188e565b610831565b005b3480156101b757600080fd5b506101c0610b87565b6040516101cd9190611956565b60405180910390f35b3480156101e257600080fd5b506101eb610bb0565b6040516101f89190611761565b60405180910390f35b34801561020d57600080fd5b50610216610bd6565b6040516102239190611761565b60405180910390f35b61024660048036038101906102419190611971565b610bfc565b005b34801561025457600080fd5b5061026f600480360381019061026a9190611971565b610e5e565b005b34801561027d57600080fd5b50610298600480360381019061029391906119d1565b610eef565b005b3480156102a657600080fd5b506102c160048036038101906102bc9190611a71565b611190565b005b600260009054906101000a900473ffffffffffffffffffffffffffffffffffffffff1681565b6000821161032c576040517f08c379a000000000000000000000000000000000000000000000000000000000815260040161032390611afb565b60405180910390fd5b6000600160009054906101000a900473ffffffffffffffffffffffffffffffffffffffff1673ffffffffffffffffffffffffffffffffffffffff166370a08231306040518263ffffffff1660e01b81526004016103899190611956565b602060405180830381865afa1580156103a6573d6000803e3d6000fd5b505050506040513d601f19601f820116820180604052508101906103ca9190611b30565b905060004790506000821180156103e15750600081115b610420576040517f08c379a000000000000000000000000000000000000000000000000000000000815260040161041790611ba9565b60405180910390fd5b6000848361042e9190611bf8565b858361043a9190611c2c565b6104449190611c9d565b905083811015610489576040517f08c379a000000000000000000000000000000000000000000000000000000000815260040161048090611d1a565b60405180910390fd5b6104d8333087600160009054906101000a900473ffffffffffffffffffffffffffffffffffffffff1673ffffffffffffffffffffffffffffffffffffffff16611216909392919063ffffffff16565b3373ffffffffffffffffffffffffffffffffffffffff166108fc829081150290604051600060405180830381858888f1935050505015801561051e573d6000803e3d6000fd5b503373ffffffffffffffffffffffffffffffffffffffff167f9882a73e249e93f2148a87b5f12b4ebedb657a77e07653469a47651bee85257c8683604051610567929190611de1565b60405180910390a25050505050565b600034116105b9576040517f08c379a00000000000000000000000000000000000000000000000000000000081526004016105b090611e7c565b60405180910390fd5b600034476105c79190611e9c565b90506000600160009054906101000a900473ffffffffffffffffffffffffffffffffffffffff1673ffffffffffffffffffffffffffffffffffffffff166370a08231306040518263ffffffff1660e01b81526004016106269190611956565b602060405180830381865afa158015610643573d6000803e3d6000fd5b505050506040513d601f19601f820116820180604052508101906106679190611b30565b90506000821180156106795750600081115b6106b8576040517f08c379a00000000000000000000000000000000000000000000000000000000081526004016106af90611ba9565b60405180910390fd5b600034836106c69190611bf8565b34836106d29190611c2c565b6106dc9190611c9d565b905083811015610721576040517f08c379a000000000000000000000000000000000000000000000000000000000815260040161071890611d1a565b60405180910390fd5b61076e3382600160009054906101000a900473ffffffffffffffffffffffffffffffffffffffff1673ffffffffffffffffffffffffffffffffffffffff1661126b9092919063ffffffff16565b3373ffffffffffffffffffffffffffffffffffffffff167f9882a73e249e93f2148a87b5f12b4ebedb657a77e07653469a47651bee85257c34836040516107b6929190611ed0565b60405180910390a250505050565b6107cc6112be565b6107d66000611345565b565b6107e06112be565b6107e8610b87565b73ffffffffffffffffffffffffffffffffffffffff166108fc829081150290604051600060405180830381858888f1935050505015801561082d573d6000803e3d6000fd5b5050565b60008211610874576040517f08c379a000000000000000000000000000000000000000000000000000000000815260040161086b90611afb565b60405180910390fd5b60006108c387878080601f016020809104026020016040519081016040528093929190818152602001838380828437600081840152601f19601f82011690508083019250505050505050611409565b9050600061091486868080601f016020809104026020016040519081016040528093929190818152602001838380828437600081840152601f19601f82011690508083019250505050505050611409565b905060008273ffffffffffffffffffffffffffffffffffffffff166370a08231306040518263ffffffff1660e01b81526004016109519190611956565b602060405180830381865afa15801561096e573d6000803e3d6000fd5b505050506040513d601f19601f820116820180604052508101906109929190611b30565b905060008273ffffffffffffffffffffffffffffffffffffffff166370a08231306040518263ffffffff1660e01b81526004016109cf9190611956565b602060405180830381865afa1580156109ec573d6000803e3d6000fd5b505050506040513d601f19601f82011682018060405250810190610a109190611b30565b9050600082118015610a225750600081115b610a61576040517f08c379a0000000000000000000000000000000000000000000000000000000008152600401610a5890611ba9565b60405180910390fd5b60008683610a6f9190611bf8565b8783610a7b9190611c2c565b610a859190611c9d565b905085811015610aca576040517f08c379a0000000000000000000000000000000000000000000000000000000008152600401610ac190611d1a565b60405180910390fd5b610af73330898873ffffffffffffffffffffffffffffffffffffffff16611216909392919063ffffffff16565b610b2233828673ffffffffffffffffffffffffffffffffffffffff1661126b9092919063ffffffff16565b3373ffffffffffffffffffffffffffffffffffffffff167f9882a73e249e93f2148a87b5f12b4ebedb657a77e07653469a47651bee85257c8c8c8c8c8c87604051610b7296959493929190611f6c565b60405180910390a25050505050505050505050565b60008060009054906101000a900473ffffffffffffffffffffffffffffffffffffffff16905090565b600360009054906101000a900473ffffffffffffffffffffffffffffffffffffffff1681565b600160009054906101000a900473ffffffffffffffffffffffffffffffffffffffff1681565b60003411610c3f576040517f08c379a0000000000000000000000000000000000000000000000000000000008152600401610c3690611e7c565b60405180910390fd5b6000610c8e84848080601f016020809104026020016040519081016040528093929190818152602001838380828437600081840152601f19601f82011690508083019250505050505050611409565b905060003447610c9e9190611e9c565b905060008273ffffffffffffffffffffffffffffffffffffffff166370a08231306040518263ffffffff1660e01b8152600401610cdb9190611956565b602060405180830381865afa158015610cf8573d6000803e3d6000fd5b505050506040513d601f19601f82011682018060405250810190610d1c9190611b30565b9050600082118015610d2e5750600081115b610d6d576040517f08c379a0000000000000000000000000000000000000000000000000000000008152600401610d6490611ba9565b60405180910390fd5b60003483610d7b9190611bf8565b3483610d879190611c2c565b610d919190611c9d565b905084811015610dd6576040517f08c379a0000000000000000000000000000000000000000000000000000000008152600401610dcd90611d1a565b60405180910390fd5b610e0133828673ffffffffffffffffffffffffffffffffffffffff1661126b9092919063ffffffff16565b3373ffffffffffffffffffffffffffffffffffffffff167f9882a73e249e93f2148a87b5f12b4ebedb657a77e07653469a47651bee85257c88883485604051610e4d9493929190611fc3565b60405180910390a250505050505050565b610e666112be565b6000610eb584848080601f016020809104026020016040519081016040528093929190818152602001838380828437600081840152601f19601f82011690508083019250505050505050611409565b9050610ee9610ec2610b87565b838373ffffffffffffffffffffffffffffffffffffffff1661126b9092919063ffffffff16565b50505050565b60008211610f32576040517f08c379a0000000000000000000000000000000000000000000000000000000008152600401610f2990611afb565b60405180910390fd5b6000610f8185858080601f016020809104026020016040519081016040528093929190818152602001838380828437600081840152601f19601f82011690508083019250505050505050611409565b905060008173ffffffffffffffffffffffffffffffffffffffff166370a08231306040518263ffffffff1660e01b8152600401610fbe9190611956565b602060405180830381865afa158015610fdb573d6000803e3d6000fd5b505050506040513d601f19601f82011682018060405250810190610fff9190611b30565b905060004790506000821180156110165750600081115b611055576040517f08c379a000000000000000000000000000000000000000000000000000000000815260040161104c90611ba9565b60405180910390fd5b600085836110639190611bf8565b868361106f9190611c2c565b6110799190611c9d565b9050848110156110be576040517f08c379a00000000000000000000000000000000000000000000000000000000081526004016110b590611d1a565b60405180910390fd5b6110eb3330888773ffffffffffffffffffffffffffffffffffffffff16611216909392919063ffffffff16565b3373ffffffffffffffffffffffffffffffffffffffff166108fc829081150290604051600060405180830381858888f19350505050158015611131573d6000803e3d6000fd5b503373ffffffffffffffffffffffffffffffffffffffff167f9882a73e249e93f2148a87b5f12b4ebedb657a77e07653469a47651bee85257c8989898560405161117e9493929190612016565b60405180910390a25050505050505050565b6111986112be565b600073ffffffffffffffffffffffffffffffffffffffff168173ffffffffffffffffffffffffffffffffffffffff160361120a5760006040517f1e4fbdf70000000000000000000000000000000000000000000000000000000081526004016112019190611956565b60405180910390fd5b61121381611345565b50565b6112248484848460016115f5565b61126557836040517f5274afe700000000000000000000000000000000000000000000000000000000815260040161125c9190611956565b60405180910390fd5b50505050565b6112788383836001611670565b6112b957826040517f5274afe70000000000000000000000000000000000000000000000000000000081526004016112b09190611956565b60405180910390fd5b505050565b6112c66116da565b73ffffffffffffffffffffffffffffffffffffffff166112e4610b87565b73ffffffffffffffffffffffffffffffffffffffff1614611343576113076116da565b6040517f118cdaa700000000000000000000000000000000000000000000000000000000815260040161133a9190611956565b60405180910390fd5b565b60008060009054906101000a900473ffffffffffffffffffffffffffffffffffffffff169050816000806101000a81548173ffffffffffffffffffffffffffffffffffffffff021916908373ffffffffffffffffffffffffffffffffffffffff1602179055508173ffffffffffffffffffffffffffffffffffffffff168173ffffffffffffffffffffffffffffffffffffffff167f8be0079c531659141344cd1fd0a4f28419497f9722a3daafe3b4186f6b6457e060405160405180910390a35050565b60006040518060400160405280600681526020017f2457414745520000000000000000000000000000000000000000000000000000815250805190602001208280519060200120148061149e57506040518060400160405280600581526020017f5741474552000000000000000000000000000000000000000000000000000000815250805190602001208280519060200120145b156114cd57600160009054906101000a900473ffffffffffffffffffffffffffffffffffffffff1690506115f0565b6040518060400160405280600481526020017f55534443000000000000000000000000000000000000000000000000000000008152508051906020012082805190602001200361154157600260009054906101000a900473ffffffffffffffffffffffffffffffffffffffff1690506115f0565b6040518060400160405280600481526020017f5553445400000000000000000000000000000000000000000000000000000000815250805190602001208280519060200120036115b557600360009054906101000a900473ffffffffffffffffffffffffffffffffffffffff1690506115f0565b6040517f08c379a00000000000000000000000000000000000000000000000000000000081526004016115e7906120b5565b60405180910390fd5b919050565b6000806323b872dd60e01b90506040518160005260001960601c871660045260001960601c8616602452846044526020600060646000808c5af19250600160005114831661165c57838315161561164f573d6000823e3d81fd5b6000883b113d1516831692505b806040526000606052505095945050505050565b60008063a9059cbb60e01b90506040518160005260001960601c8616600452846024526020600060446000808b5af1925060016000511483166116cc5783831516156116bf573d6000823e3d81fd5b6000873b113d1516831692505b806040525050949350505050565b600033905090565b600073ffffffffffffffffffffffffffffffffffffffff82169050919050565b6000819050919050565b600061172761172261171d846116e2565b611702565b6116e2565b9050919050565b60006117398261170c565b9050919050565b600061174b8261172e565b9050919050565b61175b81611740565b82525050565b60006020820190506117766000830184611752565b92915050565b600080fd5b600080fd5b6000819050919050565b61179981611786565b81146117a457600080fd5b50565b6000813590506117b681611790565b92915050565b600080604083850312156117d3576117d261177c565b5b60006117e1858286016117a7565b92505060206117f2858286016117a7565b9150509250929050565b6000602082840312156118125761181161177c565b5b6000611820848285016117a7565b91505092915050565b600080fd5b600080fd5b600080fd5b60008083601f84011261184e5761184d611829565b5b8235905067ffffffffffffffff81111561186b5761186a61182e565b5b60208301915083600182028301111561188757611886611833565b5b9250929050565b600080600080600080608087890312156118ab576118aa61177c565b5b600087013567ffffffffffffffff8111156118c9576118c8611781565b5b6118d589828a01611838565b9650965050602087013567ffffffffffffffff8111156118f8576118f7611781565b5b61190489828a01611838565b9450945050604061191789828a016117a7565b925050606061192889828a016117a7565b9150509295509295509295565b6000611940826116e2565b9050919050565b61195081611935565b82525050565b600060208201905061196b6000830184611947565b92915050565b60008060006040848603121561198a5761198961177c565b5b600084013567ffffffffffffffff8111156119a8576119a7611781565b5b6119b486828701611838565b935093505060206119c7868287016117a7565b9150509250925092565b600080600080606085870312156119eb576119ea61177c565b5b600085013567ffffffffffffffff811115611a0957611a08611781565b5b611a1587828801611838565b94509450506020611a28878288016117a7565b9250506040611a39878288016117a7565b91505092959194509250565b611a4e81611935565b8114611a5957600080fd5b50565b600081359050611a6b81611a45565b92915050565b600060208284031215611a8757611a8661177c565b5b6000611a9584828501611a5c565b91505092915050565b600082825260208201905092915050565b7f416d6f756e74206d757374206265203e20300000000000000000000000000000600082015250565b6000611ae5601283611a9e565b9150611af082611aaf565b602082019050919050565b60006020820190508181036000830152611b1481611ad8565b9050919050565b600081519050611b2a81611790565b92915050565b600060208284031215611b4657611b4561177c565b5b6000611b5484828501611b1b565b91505092915050565b7f496e73756666696369656e7420706f6f6c206c69717569646974790000000000600082015250565b6000611b93601b83611a9e565b9150611b9e82611b5d565b602082019050919050565b60006020820190508181036000830152611bc281611b86565b9050919050565b7f4e487b7100000000000000000000000000000000000000000000000000000000600052601160045260246000fd5b6000611c0382611786565b9150611c0e83611786565b9250828201905080821115611c2657611c25611bc9565b5b92915050565b6000611c3782611786565b9150611c4283611786565b9250828202611c5081611786565b91508282048414831517611c6757611c66611bc9565b5b5092915050565b7f4e487b7100000000000000000000000000000000000000000000000000000000600052601260045260246000fd5b6000611ca882611786565b9150611cb383611786565b925082611cc357611cc2611c6e565b5b828204905092915050565b7f536c69707061676520746f6f2068696768000000000000000000000000000000600082015250565b6000611d04601183611a9e565b9150611d0f82611cce565b602082019050919050565b60006020820190508181036000830152611d3381611cf7565b9050919050565b7f2457414745520000000000000000000000000000000000000000000000000000600082015250565b6000611d70600683611a9e565b9150611d7b82611d3a565b602082019050919050565b7f4842415200000000000000000000000000000000000000000000000000000000600082015250565b6000611dbc600483611a9e565b9150611dc782611d86565b602082019050919050565b611ddb81611786565b82525050565b60006080820190508181036000830152611dfa81611d63565b90508181036020830152611e0d81611daf565b9050611e1c6040830185611dd2565b611e296060830184611dd2565b9392505050565b7f4d7573742073656e642048424152000000000000000000000000000000000000600082015250565b6000611e66600e83611a9e565b9150611e7182611e30565b602082019050919050565b60006020820190508181036000830152611e9581611e59565b9050919050565b6000611ea782611786565b9150611eb283611786565b9250828203905081811115611eca57611ec9611bc9565b5b92915050565b60006080820190508181036000830152611ee981611daf565b90508181036020830152611efc81611d63565b9050611f0b6040830185611dd2565b611f186060830184611dd2565b9392505050565b82818337600083830152505050565b6000601f19601f8301169050919050565b6000611f4b8385611a9e565b9350611f58838584611f1f565b611f6183611f2e565b840190509392505050565b60006080820190508181036000830152611f8781888a611f3f565b90508181036020830152611f9c818688611f3f565b9050611fab6040830185611dd2565b611fb86060830184611dd2565b979650505050505050565b60006080820190508181036000830152611fdc81611daf565b90508181036020830152611ff1818688611f3f565b90506120006040830185611dd2565b61200d6060830184611dd2565b95945050505050565b60006080820190508181036000830152612031818688611f3f565b9050818103602083015261204481611daf565b90506120536040830185611dd2565b6120606060830184611dd2565b95945050505050565b7f556e737570706f7274656420746f6b656e000000000000000000000000000000600082015250565b600061209f601183611a9e565b91506120aa82612069565b602082019050919050565b600060208201905081810360008301526120ce81612092565b905091905056fea26469706673582212208a76f4646ed47c9e7a5a046b7589183129ef46e11ceed7912f65dfa76f576e7d64736f6c63430008140033",
  "linkReferences": {},
  "deployedLinkReferences": {}
}