{
  "_format": "hh-sol-artifact-1",
  "contractName": "WagerSwapPool",
  "sourceName": "contracts/WagerSwapPool.sol",
  "abi": [
    {
      "inputs": [
        {
          "internalType": "address",
          "name": "_wagerToken",
          "type": "address"
        }
      ],
      "stateMutability": "nonpayable",
      "type": "constructor"
    },
    {
      "inputs": [
        {
          "internalType": "address",
          "name": "owner",
          "type": "address"
        }
      ],
      "name": "OwnableInvalidOwner",
      "type": "error"
    },
    {
      "inputs": [
        {
          "internalType": "address",
          "name": "account",
          "type": "address"
        }
      ],
      "name": "OwnableUnauthorizedAccount",
      "type": "error"
    },
    {
      "anonymous": false,
      "inputs": [
        {
          "indexed": true,
          "internalType": "address",
          "name": "previousOwner",
          "type": "address"
        },
        {
          "indexed": true,
          "internalType": "address",
          "name": "newOwner",
          "type": "address"
        }
      ],
      "name": "OwnershipTransferred",
      "type": "event"
    },
    {
      "anonymous": false,
      "inputs": [
        {
          "indexed": true,
          "internalType": "address",
          "name": "user",
          "type": "address"
        },
        {
          "indexed": false,
          "internalType": "uint256",
          "name": "hbarIn",
          "type": "uint256"
        },
        {
          "indexed": false,
          "internalType": "uint256",
          "name": "wagerOut",
          "type": "uint256"
        }
      ],
      "name": "Swap",
      "type": "event"
    },
    {
      "inputs": [],
      "name": "hbarToWagerRate",
      "outputs": [
        {
          "internalType": "uint256",
          "name": "",
          "type": "uint256"
        }
      ],
      "stateMutability": "view",
      "type": "function"
    },
    {
      "inputs": [],
      "name": "owner",
      "outputs": [
        {
          "internalType": "address",
          "name": "",
          "type": "address"
        }
      ],
      "stateMutability": "view",
      "type": "function"
    },
    {
      "inputs": [],
      "name": "renounceOwnership",
      "outputs": [],
      "stateMutability": "nonpayable",
      "type": "function"
    },
    {
      "inputs": [],
      "name": "swapHbarForWager",
      "outputs": [],
      "stateMutability": "payable",
      "type": "function"
    },
    {
      "inputs": [
        {
          "internalType": "address",
          "name": "newOwner",
          "type": "address"
        }
      ],
      "name": "transferOwnership",
      "outputs": [],
      "stateMutability": "nonpayable",
      "type": "function"
    },
    {
      "inputs": [],
      "name": "wagerToken",
      "outputs": [
        {
          "internalType": "contract IERC20",
          "name": "",
          "type": "address"
        }
      ],
      "stateMutability": "view",
      "type": "function"
    },
    {
      "inputs": [],
      "name": "withdrawHbar",
      "outputs": [],
      "stateMutability": "nonpayable",
      "type": "function"
    },
    {
      "inputs": [
        {
          "internalType": "uint256",
          "name": "amount",
          "type": "uint256"
        }
      ],
      "name": "withdrawWager",
      "outputs": [],
      "stateMutability": "nonpayable",
      "type": "function"
    }
  ],
  "bytecode": "0x6080604052600a6002553480156200001657600080fd5b5060405162000df338038062000df383398181016040528101906200003c91906200023a565b33600073ffffffffffffffffffffffffffffffffffffffff168173ffffffffffffffffffffffffffffffffffffffff1603620000b25760006040517f1e4fbdf7000000000000000000000000000000000000000000000000000000008152600401620000a991906200027d565b60405180910390fd5b620000c3816200010c60201b60201c565b5080600160006101000a81548173ffffffffffffffffffffffffffffffffffffffff021916908373ffffffffffffffffffffffffffffffffffffffff160217905550506200029a565b60008060009054906101000a900473ffffffffffffffffffffffffffffffffffffffff169050816000806101000a81548173ffffffffffffffffffffffffffffffffffffffff021916908373ffffffffffffffffffffffffffffffffffffffff1602179055508173ffffffffffffffffffffffffffffffffffffffff168173ffffffffffffffffffffffffffffffffffffffff167f8be0079c531659141344cd1fd0a4f28419497f9722a3daafe3b4186f6b6457e060405160405180910390a35050565b600080fd5b600073ffffffffffffffffffffffffffffffffffffffff82169050919050565b60006200020282620001d5565b9050919050565b6200021481620001f5565b81146200022057600080fd5b50565b600081519050620002348162000209565b92915050565b600060208284031215620002535762000252620001d0565b5b6000620002638482850162000223565b91505092915050565b6200027781620001f5565b82525050565b60006020820190506200029460008301846200026c565b92915050565b610b4980620002aa6000396000f3fe60806040526004361061007b5760003560e01c8063adad36851161004e578063adad3685146100e3578063d323d51d1461010e578063e421509314610137578063f2fde38b146101625761007b565b806334c76b6a146100805780637072423b1461008a578063715018a6146100a15780638da5cb5b146100b8575b600080fd5b61008861018b565b005b34801561009657600080fd5b5061009f6103b2565b005b3480156100ad57600080fd5b506100b661040a565b005b3480156100c457600080fd5b506100cd61041e565b6040516100da9190610740565b60405180910390f35b3480156100ef57600080fd5b506100f8610447565b60405161010591906107ba565b60405180910390f35b34801561011a57600080fd5b5061013560048036038101906101309190610810565b61046d565b005b34801561014357600080fd5b5061014c610520565b604051610159919061084c565b60405180910390f35b34801561016e57600080fd5b5061018960048036038101906101849190610893565b610526565b005b600034116101ce576040517f08c379a00000000000000000000000000000000000000000000000000000000081526004016101c59061091d565b60405180910390fd5b6000600254346101de919061096c565b905080600160009054906101000a900473ffffffffffffffffffffffffffffffffffffffff1673ffffffffffffffffffffffffffffffffffffffff166370a08231306040518263ffffffff1660e01b815260040161023c9190610740565b602060405180830381865afa158015610259573d6000803e3d6000fd5b505050506040513d601f19601f8201168201806040525081019061027d91906109c3565b10156102be576040517f08c379a00000000000000000000000000000000000000000000000000000000081526004016102b590610a3c565b60405180910390fd5b600160009054906101000a900473ffffffffffffffffffffffffffffffffffffffff1673ffffffffffffffffffffffffffffffffffffffff1663a9059cbb33836040518363ffffffff1660e01b815260040161031b929190610a5c565b6020604051808303816000875af115801561033a573d6000803e3d6000fd5b505050506040513d601f19601f8201168201806040525081019061035e9190610abd565b503373ffffffffffffffffffffffffffffffffffffffff167f77f92a1b6a1a11de8ca49515ad4c1fad45632dd3442167d74b90b304a3c7a75834836040516103a7929190610aea565b60405180910390a250565b6103ba6105ac565b6103c261041e565b73ffffffffffffffffffffffffffffffffffffffff166108fc479081150290604051600060405180830381858888f19350505050158015610407573d6000803e3d6000fd5b50565b6104126105ac565b61041c6000610633565b565b60008060009054906101000a900473ffffffffffffffffffffffffffffffffffffffff16905090565b600160009054906101000a900473ffffffffffffffffffffffffffffffffffffffff1681565b6104756105ac565b600160009054906101000a900473ffffffffffffffffffffffffffffffffffffffff1673ffffffffffffffffffffffffffffffffffffffff1663a9059cbb6104bb61041e565b836040518363ffffffff1660e01b81526004016104d9929190610a5c565b6020604051808303816000875af11580156104f8573d6000803e3d6000fd5b505050506040513d601f19601f8201168201806040525081019061051c9190610abd565b5050565b60025481565b61052e6105ac565b600073ffffffffffffffffffffffffffffffffffffffff168173ffffffffffffffffffffffffffffffffffffffff16036105a05760006040517f1e4fbdf70000000000000000000000000000000000000000000000000000000081526004016105979190610740565b60405180910390fd5b6105a981610633565b50565b6105b46106f7565b73ffffffffffffffffffffffffffffffffffffffff166105d261041e565b73ffffffffffffffffffffffffffffffffffffffff1614610631576105f56106f7565b6040517f118cdaa70000000000000000000000000000000000000000000000000000000081526004016106289190610740565b60405180910390fd5b565b60008060009054906101000a900473ffffffffffffffffffffffffffffffffffffffff169050816000806101000a81548173ffffffffffffffffffffffffffffffffffffffff021916908373ffffffffffffffffffffffffffffffffffffffff1602179055508173ffffffffffffffffffffffffffffffffffffffff168173ffffffffffffffffffffffffffffffffffffffff167f8be0079c531659141344cd1fd0a4f28419497f9722a3daafe3b4186f6b6457e060405160405180910390a35050565b600033905090565b600073ffffffffffffffffffffffffffffffffffffffff82169050919050565b600061072a826106ff565b9050919050565b61073a8161071f565b82525050565b60006020820190506107556000830184610731565b92915050565b6000819050919050565b600061078061077b610776846106ff565b61075b565b6106ff565b9050919050565b600061079282610765565b9050919050565b60006107a482610787565b9050919050565b6107b481610799565b82525050565b60006020820190506107cf60008301846107ab565b92915050565b600080fd5b6000819050919050565b6107ed816107da565b81146107f857600080fd5b50565b60008135905061080a816107e4565b92915050565b600060208284031215610826576108256107d5565b5b6000610834848285016107fb565b91505092915050565b610846816107da565b82525050565b6000602082019050610861600083018461083d565b92915050565b6108708161071f565b811461087b57600080fd5b50565b60008135905061088d81610867565b92915050565b6000602082840312156108a9576108a86107d5565b5b60006108b78482850161087e565b91505092915050565b600082825260208201905092915050565b7f4d7573742073656e642048424152000000000000000000000000000000000000600082015250565b6000610907600e836108c0565b9150610912826108d1565b602082019050919050565b60006020820190508181036000830152610936816108fa565b9050919050565b7f4e487b7100000000000000000000000000000000000000000000000000000000600052601160045260246000fd5b6000610977826107da565b9150610982836107da565b9250828202610990816107da565b915082820484148315176109a7576109a661093d565b5b5092915050565b6000815190506109bd816107e4565b92915050565b6000602082840312156109d9576109d86107d5565b5b60006109e7848285016109ae565b91505092915050565b7f496e73756666696369656e74206c697175696469747900000000000000000000600082015250565b6000610a266016836108c0565b9150610a31826109f0565b602082019050919050565b60006020820190508181036000830152610a5581610a19565b9050919050565b6000604082019050610a716000830185610731565b610a7e602083018461083d565b9392505050565b60008115159050919050565b610a9a81610a85565b8114610aa557600080fd5b50565b600081519050610ab781610a91565b92915050565b600060208284031215610ad357610ad26107d5565b5b6000610ae184828501610aa8565b91505092915050565b6000604082019050610aff600083018561083d565b610b0c602083018461083d565b939250505056fea264697066735822122078d3b5e4512c5efffa971a02e69799388ac55767ccc2f6f3ffac16f7a26b6d6764736f6c63430008140033",
  "linkReferences": {},
  "deployedLinkReferences": {}
}